{
  "contractName": "BurnAuction",
  "abi": [
    {
      "inputs": [
        {
          "internalType": "uint256",
          "name": "_maxTx",
          "type": "uint256"
        },
        {
          "internalType": "address payable",
          "name": "_burnAddress",
          "type": "address"
        }
      ],
      "payable": false,
      "stateMutability": "nonpayable",
      "type": "constructor"
    },
    {
      "anonymous": false,
      "inputs": [
        {
          "indexed": false,
          "internalType": "uint32",
          "name": "slot",
          "type": "uint32"
        },
        {
          "indexed": false,
          "internalType": "uint256",
          "name": "amount",
          "type": "uint256"
        },
        {
          "indexed": false,
          "internalType": "uint256",
          "name": "price",
          "type": "uint256"
        },
        {
          "indexed": false,
          "internalType": "address",
          "name": "Coordinator",
          "type": "address"
        },
        {
          "indexed": false,
          "internalType": "string",
          "name": "url",
          "type": "string"
        }
      ],
      "name": "currentBestBid",
      "type": "event"
    },
    {
      "constant": true,
      "inputs": [],
      "name": "BLOCKS_PER_SLOT",
      "outputs": [
        {
          "internalType": "uint32",
          "name": "",
          "type": "uint32"
        }
      ],
      "payable": false,
      "stateMutability": "view",
      "type": "function"
    },
    {
      "constant": true,
      "inputs": [],
      "name": "DELAY_GENESIS",
      "outputs": [
        {
          "internalType": "uint256",
          "name": "",
          "type": "uint256"
        }
      ],
      "payable": false,
      "stateMutability": "view",
      "type": "function"
    },
    {
      "constant": true,
      "inputs": [],
      "name": "MIN_BID",
      "outputs": [
        {
          "internalType": "uint256",
          "name": "",
          "type": "uint256"
        }
      ],
      "payable": false,
      "stateMutability": "view",
      "type": "function"
    },
    {
      "constant": true,
      "inputs": [],
      "name": "SLOT_DEADLINE",
      "outputs": [
        {
          "internalType": "uint256",
          "name": "",
          "type": "uint256"
        }
      ],
      "payable": false,
      "stateMutability": "view",
      "type": "function"
    },
    {
      "constant": true,
      "inputs": [],
      "name": "coDefault",
      "outputs": [
        {
          "internalType": "address payable",
          "name": "beneficiaryAddress",
          "type": "address"
        },
        {
          "internalType": "address",
          "name": "submitAddress",
          "type": "address"
        },
        {
          "internalType": "address",
          "name": "withdrawAddress",
          "type": "address"
        },
        {
          "internalType": "string",
          "name": "url",
          "type": "string"
        }
      ],
      "payable": false,
      "stateMutability": "view",
      "type": "function"
    },
    {
      "constant": true,
      "inputs": [],
      "name": "genesisBlock",
      "outputs": [
        {
          "internalType": "uint256",
          "name": "",
          "type": "uint256"
        }
      ],
      "payable": false,
      "stateMutability": "view",
      "type": "function"
    },
    {
      "constant": true,
      "inputs": [
        {
          "internalType": "uint256",
          "name": "",
          "type": "uint256"
        }
      ],
      "name": "infoSlot",
      "outputs": [
        {
          "internalType": "uint256",
          "name": "slotPrice",
          "type": "uint256"
        },
        {
          "internalType": "uint256",
          "name": "maxtargetProfit",
          "type": "uint256"
        }
      ],
      "payable": false,
      "stateMutability": "view",
      "type": "function"
    },
    {
      "constant": true,
      "inputs": [],
      "name": "maxTx",
      "outputs": [
        {
          "internalType": "uint256",
          "name": "",
          "type": "uint256"
        }
      ],
      "payable": false,
      "stateMutability": "view",
      "type": "function"
    },
    {
      "constant": true,
      "inputs": [
        {
          "internalType": "uint256",
          "name": "",
          "type": "uint256"
        }
      ],
      "name": "slotBid",
      "outputs": [
        {
          "internalType": "uint256",
          "name": "amount",
          "type": "uint256"
        },
        {
          "internalType": "bool",
          "name": "initialized",
          "type": "bool"
        }
      ],
      "payable": false,
      "stateMutability": "view",
      "type": "function"
    },
    {
      "constant": true,
      "inputs": [
        {
          "internalType": "uint256",
          "name": "",
          "type": "uint256"
        }
      ],
      "name": "slotWinner",
      "outputs": [
        {
          "internalType": "address payable",
          "name": "beneficiaryAddress",
          "type": "address"
        },
        {
          "internalType": "address",
          "name": "submitAddress",
          "type": "address"
        },
        {
          "internalType": "address",
          "name": "withdrawAddress",
          "type": "address"
        },
        {
          "internalType": "string",
          "name": "url",
          "type": "string"
        }
      ],
      "payable": false,
      "stateMutability": "view",
      "type": "function"
    },
    {
      "constant": true,
      "inputs": [],
      "name": "sumtotalFees",
      "outputs": [
        {
          "internalType": "uint256",
          "name": "",
          "type": "uint256"
        }
      ],
      "payable": false,
      "stateMutability": "view",
      "type": "function"
    },
    {
      "constant": true,
      "inputs": [],
      "name": "targetProfit",
      "outputs": [
        {
          "internalType": "uint256",
          "name": "",
          "type": "uint256"
        }
      ],
      "payable": false,
      "stateMutability": "view",
      "type": "function"
    },
    {
      "constant": true,
      "inputs": [],
      "name": "getBlockNumber",
      "outputs": [
        {
          "internalType": "uint256",
          "name": "",
          "type": "uint256"
        }
      ],
      "payable": false,
      "stateMutability": "view",
      "type": "function"
    },
    {
      "constant": true,
      "inputs": [
        {
          "internalType": "uint256",
          "name": "numBlock",
          "type": "uint256"
        }
      ],
      "name": "block2slot",
      "outputs": [
        {
          "internalType": "uint32",
          "name": "",
          "type": "uint32"
        }
      ],
      "payable": false,
      "stateMutability": "view",
      "type": "function"
    },
    {
      "constant": true,
      "inputs": [],
      "name": "currentSlot",
      "outputs": [
        {
          "internalType": "uint32",
          "name": "",
          "type": "uint32"
        }
      ],
      "payable": false,
      "stateMutability": "view",
      "type": "function"
    },
    {
      "constant": true,
      "inputs": [
        {
          "internalType": "uint32",
          "name": "slot",
          "type": "uint32"
        }
      ],
      "name": "getBlockBySlot",
      "outputs": [
        {
          "internalType": "uint256",
          "name": "",
          "type": "uint256"
        }
      ],
      "payable": false,
      "stateMutability": "view",
      "type": "function"
    }
  ],
  "bytecode": "0x608060405234801561001057600080fd5b50604051610a26380380610a268339818101604052604081101561003357600080fd5b8101908080519060200190929190805190602001909291905050506103e86100686100be640100000000026401000000009004565b016000819055508160018190555080600260006101000a81548173ffffffffffffffffffffffffffffffffffffffff021916908373ffffffffffffffffffffffffffffffffffffffff16021790555050506100c6565b600043905090565b610951806100d56000396000f3fe608060405234801561001057600080fd5b506004361061011d576000357c0100000000000000000000000000000000000000000000000000000000900480637437681e116100b4578063b859605a11610083578063b859605a14610478578063bf06b76514610594578063ce69cd20146105b2578063f20da664146105d05761011d565b80637437681e14610283578063838dd743146102a15780638f42883f146102ea578063a87a2ead1461042a5761011d565b80634cdc9c63116100f05780634cdc9c63146101e1578063654a2bbb146101ff578063657cd76a146102475780636aff0fc5146102655761011d565b80632243de47146101225780633359632e1461014c578063429e95b41461017657806342cbb15c146101c3575b600080fd5b61012a6105ee565b604051808263ffffffff1663ffffffff16815260200191505060405180910390f35b6101546105f3565b604051808263ffffffff1663ffffffff16815260200191505060405180910390f35b6101a26004803603602081101561018c57600080fd5b810190808035906020019092919050505061060a565b60405180838152602001821515151581526020019250505060405180910390f35b6101cb61063b565b6040518082815260200191505060405180910390f35b6101e9610643565b6040518082815260200191505060405180910390f35b6102316004803603602081101561021557600080fd5b81019080803563ffffffff169060200190929190505050610649565b6040518082815260200191505060405180910390f35b61024f610660565b6040518082815260200191505060405180910390f35b61026d610666565b6040518082815260200191505060405180910390f35b61028b61066b565b6040518082815260200191505060405180910390f35b6102cd600480360360208110156102b757600080fd5b8101908080359060200190929190505050610671565b604051808381526020018281526020019250505060405180910390f35b6103166004803603602081101561030057600080fd5b8101908080359060200190929190505050610695565b604051808573ffffffffffffffffffffffffffffffffffffffff1673ffffffffffffffffffffffffffffffffffffffff1681526020018473ffffffffffffffffffffffffffffffffffffffff1673ffffffffffffffffffffffffffffffffffffffff1681526020018373ffffffffffffffffffffffffffffffffffffffff1673ffffffffffffffffffffffffffffffffffffffff16815260200180602001828103825283818151815260200191508051906020019080838360005b838110156103ec5780820151818401526020810190506103d1565b50505050905090810190601f1680156104195780820380516001836020036101000a031916815260200191505b509550505050505060405180910390f35b6104566004803603602081101561044057600080fd5b81019080803590602001909291905050506107bd565b604051808263ffffffff1663ffffffff16815260200191505060405180910390f35b6104806107ee565b604051808573ffffffffffffffffffffffffffffffffffffffff1673ffffffffffffffffffffffffffffffffffffffff1681526020018473ffffffffffffffffffffffffffffffffffffffff1673ffffffffffffffffffffffffffffffffffffffff1681526020018373ffffffffffffffffffffffffffffffffffffffff1673ffffffffffffffffffffffffffffffffffffffff16815260200180602001828103825283818151815260200191508051906020019080838360005b8381101561055657808201518184015260208101905061053b565b50505050905090810190601f1680156105835780820380516001836020036101000a031916815260200191505b509550505050505060405180910390f35b61059c610904565b6040518082815260200191505060405180910390f35b6105ba61090a565b6040518082815260200191505060405180910390f35b6105d8610916565b6040518082815260200191505060405180910390f35b606481565b600061060561060061063b565b6107bd565b905090565b600a6020528060005260406000206000915090508060000154908060010160009054906101000a900460ff16905082565b600043905090565b60005481565b60006064820263ffffffff16600054019050919050565b60075481565b601481565b60015481565b600b6020528060005260406000206000915090508060000154908060010154905082565b60096020528060005260406000206000915090508060000160009054906101000a900473ffffffffffffffffffffffffffffffffffffffff16908060010160009054906101000a900473ffffffffffffffffffffffffffffffffffffffff16908060020160009054906101000a900473ffffffffffffffffffffffffffffffffffffffff1690806003018054600181600116156101000203166002900480601f0160208091040260200160405190810160405280929190818152602001828054600181600116156101000203166002900480156107b35780601f10610788576101008083540402835291602001916107b3565b820191906000526020600020905b81548152906001019060200180831161079657829003601f168201915b5050505050905084565b600080548210156107d157600090506107e9565b606463ffffffff166000548303816107e557fe5b0490505b919050565b60038060000160009054906101000a900473ffffffffffffffffffffffffffffffffffffffff16908060010160009054906101000a900473ffffffffffffffffffffffffffffffffffffffff16908060020160009054906101000a900473ffffffffffffffffffffffffffffffffffffffff1690806003018054600181600116156101000203166002900480601f0160208091040260200160405190810160405280929190818152602001828054600181600116156101000203166002900480156108fa5780601f106108cf576101008083540402835291602001916108fa565b820191906000526020600020905b8154815290600101906020018083116108dd57829003601f168201915b5050505050905084565b6103e881565b670de0b6b3a764000081565b6008548156fea265627a7a723158204663bae5411705fcad73d55b08ac99314cf1d7b5391937f3d16b884c9555416564736f6c634300050f0032",
  "source": "pragma solidity ^0.5.15;\r\n\r\ncontract BurnAuction {\r\n    \r\n\t\r\n\t// discuss if you want to incentivize early bidders for slots using bonus\r\n\t// todo make uint types explicit\r\n\t// decide if co ordinator should be allowed to withdraw bid\r\n\t\r\n\t\r\n\t// constants \r\n\t// Defines slot block duration\r\n\t// number of blocks avaible in slot\r\n\tuint32 constant public BLOCKS_PER_SLOT = 100;\r\n\t// number of blocks after contract deployment for genesisBlock number\r\n    uint constant public DELAY_GENESIS = 1000;\r\n\t// deadline after which slot not available for bidding\r\n    uint constant public SLOT_DEADLINE = 20;\r\n\t// Minimum bid to enter the auction\r\n    uint public constant MIN_BID = 1 ether;\r\n\t// Min differance between currentslot and auction slots\r\n    uint constant MIN_NEXT_SLOTS = 2;\r\n\t\r\n\t// variables\r\n\t// First block where the first slot begins\r\n    uint public genesisBlock;\r\n\t// Maximum rollup transactions: either off-chain or on-chain transactions\r\n    uint public maxTx;\r\n\t// Burn Address\r\n    address payable burnAddress;\r\n    // Default Coordinator\r\n\t// will have to decide if we want to keep default Coordinator or not\r\n    Coordinator public coDefault;\r\n\t// profit per auction slot by Coordinator\r\n    uint public targetProfit;\r\n\t// sum of fees of all transactions included in slot\r\n\tuint public sumtotalFees;\r\n\t\r\n\t// Coordinator structure\r\n    struct Coordinator {\r\n\t    // address to return Coordinator failed bid amount back\r\n        address payable beneficiaryAddress;\r\n\t\t// Coordinator address having right to submit batch\r\n        address submitAddress;\r\n\t\t//might not need this\r\n\t\t// address to sends funds if bid withdrawn\r\n        address withdrawAddress;\r\n\t\t// Coordinator url \r\n        string url;\r\n    }\r\n\r\n    // bid structure\r\n    struct Bid {\r\n\t    // bid amount\r\n        uint amount;\r\n\t\t// used to indicate active auction for slot\r\n        bool initialized;\r\n    }\r\n\t\r\n\t// information of slot structure\r\n    struct InfoSlot {\r\n        // current price of slot\r\n        uint slotPrice;\r\n        // current max target profit on slot\r\n\t\tuint maxtargetProfit;\r\n    }\r\n\t\r\n\t// Mappings\r\n\t// mapping to control winner of slot\r\n    mapping(uint => Coordinator) public slotWinner;\r\n    // mapping to control bid by slot\r\n    mapping(uint => Bid) public slotBid;\r\n    // mapping to control information of slot\r\n    mapping(uint => InfoSlot) public infoSlot;\r\n\t\r\n\t// events\r\n\t/**\r\n     * @dev Event called when an Coordinator beat the current best bid of an ongoing auction\r\n     */\r\n    event currentBestBid(uint32 slot, uint256 amount, uint256 price, address Coordinator, string url);\r\n    \r\n\t// todo move all governance parameters in Constructor\r\n\t/**\r\n     * @dev BurnAuction Constructor\r\n     * Set first block where the first slot begin\r\n     * @param _burnAddress burner address\r\n     * @param _maxTx maximum transactions\r\n     */\r\n    constructor(uint256 _maxTx, address payable _burnAddress) public {\r\n        genesisBlock = getBlockNumber() + DELAY_GENESIS;\r\n        maxTx = _maxTx;\r\n        burnAddress = _burnAddress;\r\n    }\r\n\t\r\n\t// functions\r\n\t\r\n\t\r\n\t//helper functions\r\n\t/**\r\n     * @dev Retrieve block number\r\n     * @return current block number\r\n     */\r\n    function getBlockNumber() public view returns (uint) {\r\n        return block.number;\r\n    }\r\n\r\n    /**\r\n     * @dev Calculate slot from block number\r\n     * @param numBlock block number\r\n     * @return slot number\r\n     */\r\n    function block2slot(uint numBlock) public view returns (uint32) {\r\n        if (numBlock < genesisBlock) return 0;\r\n        return uint32((numBlock - genesisBlock) / (BLOCKS_PER_SLOT));\r\n    }\r\n\t\r\n\t/**\r\n     * @dev Retrieve current slot\r\n     * @return slot number\r\n     */\r\n    function currentSlot() public view returns (uint32) {\r\n        return block2slot(getBlockNumber());\r\n    }\r\n\r\n    /**\r\n     * @dev Retrieve the first block number for a given slot\r\n     * @param slot slot number\r\n     * @return block number\r\n     */\r\n    function getBlockBySlot(uint32 slot) public view returns (uint) {\r\n        return (genesisBlock + slot*BLOCKS_PER_SLOT);\r\n    }\r\n}",
  "sourcePath": "C:\\Users\\lazypuppet\\ethereum\\snaketh4x0r\\BurnAuctionProject\\contracts\\BurnAuction.sol",
  "compiler": {
    "name": "solc",
    "version": "0.5.15+commit.6a57276f.Emscripten.clang"
  },
  "schemaVersion": "3.1.0",
  "updatedAt": "2020-08-11T20:31:06.702Z",
  "devdoc": {
    "methods": {
      "block2slot(uint256)": {
        "details": "Calculate slot from block number",
        "params": {
          "numBlock": "block number"
        },
        "return": "slot number"
      },
      "constructor": {
        "details": "BurnAuction Constructor Set first block where the first slot begin",
        "params": {
          "_burnAddress": "burner address",
          "_maxTx": "maximum transactions"
        }
      },
      "currentSlot()": {
        "details": "Retrieve current slot",
        "return": "slot number"
      },
      "getBlockBySlot(uint32)": {
        "details": "Retrieve the first block number for a given slot",
        "params": {
          "slot": "slot number"
        },
        "return": "block number"
      },
      "getBlockNumber()": {
        "details": "Retrieve block number",
        "return": "current block number"
      }
    }
  },
  "userdoc": {
    "methods": {}
  }
}