{
  "contractName": "BurnAuction",
  "abi": [
    {
      "inputs": [
        {
          "internalType": "uint256",
          "name": "_maxTx",
          "type": "uint256"
        },
        {
          "internalType": "address payable",
          "name": "_burnAddress",
          "type": "address"
        },
        {
          "internalType": "uint32",
          "name": "_blocksPerSlot",
          "type": "uint32"
        },
        {
          "internalType": "uint256",
          "name": "_delayGenesis",
          "type": "uint256"
        },
        {
          "internalType": "uint256",
          "name": "_minBid",
          "type": "uint256"
        },
        {
          "internalType": "uint256",
          "name": "_minNextSlots",
          "type": "uint256"
        },
        {
          "internalType": "address payable",
          "name": "coReturnAddress",
          "type": "address"
        },
        {
          "internalType": "address",
          "name": "coSubmitBatchAddress",
          "type": "address"
        },
        {
          "internalType": "string",
          "name": "coUrl",
          "type": "string"
        }
      ],
      "payable": false,
      "stateMutability": "nonpayable",
      "type": "constructor"
    },
    {
      "anonymous": false,
      "inputs": [
        {
          "indexed": false,
          "internalType": "uint32",
          "name": "slot",
          "type": "uint32"
        },
        {
          "indexed": false,
          "internalType": "uint256",
          "name": "amount",
          "type": "uint256"
        },
        {
          "indexed": false,
          "internalType": "uint256",
          "name": "sumtotalFees",
          "type": "uint256"
        },
        {
          "indexed": false,
          "internalType": "uint256",
          "name": "targetProfit",
          "type": "uint256"
        },
        {
          "indexed": false,
          "internalType": "address",
          "name": "Coordinator",
          "type": "address"
        },
        {
          "indexed": false,
          "internalType": "string",
          "name": "url",
          "type": "string"
        }
      ],
      "name": "currentBestBid",
      "type": "event"
    },
    {
      "constant": true,
      "inputs": [],
      "name": "blocksPerSlot",
      "outputs": [
        {
          "internalType": "uint32",
          "name": "",
          "type": "uint32"
        }
      ],
      "payable": false,
      "stateMutability": "view",
      "type": "function"
    },
    {
      "constant": true,
      "inputs": [],
      "name": "coDefault",
      "outputs": [
        {
          "internalType": "address payable",
          "name": "returnAddress",
          "type": "address"
        },
        {
          "internalType": "address",
          "name": "submitBatchAddress",
          "type": "address"
        },
        {
          "internalType": "string",
          "name": "url",
          "type": "string"
        }
      ],
      "payable": false,
      "stateMutability": "view",
      "type": "function"
    },
    {
      "constant": true,
      "inputs": [],
      "name": "delayGenesis",
      "outputs": [
        {
          "internalType": "uint256",
          "name": "",
          "type": "uint256"
        }
      ],
      "payable": false,
      "stateMutability": "view",
      "type": "function"
    },
    {
      "constant": true,
      "inputs": [],
      "name": "genesisBlock",
      "outputs": [
        {
          "internalType": "uint256",
          "name": "",
          "type": "uint256"
        }
      ],
      "payable": false,
      "stateMutability": "view",
      "type": "function"
    },
    {
      "constant": true,
      "inputs": [
        {
          "internalType": "uint256",
          "name": "",
          "type": "uint256"
        }
      ],
      "name": "infoSlot",
      "outputs": [
        {
          "internalType": "uint256",
          "name": "slotPrice",
          "type": "uint256"
        },
        {
          "internalType": "uint256",
          "name": "maxtargetProfit",
          "type": "uint256"
        }
      ],
      "payable": false,
      "stateMutability": "view",
      "type": "function"
    },
    {
      "constant": true,
      "inputs": [],
      "name": "maxTx",
      "outputs": [
        {
          "internalType": "uint256",
          "name": "",
          "type": "uint256"
        }
      ],
      "payable": false,
      "stateMutability": "view",
      "type": "function"
    },
    {
      "constant": true,
      "inputs": [],
      "name": "minBid",
      "outputs": [
        {
          "internalType": "uint256",
          "name": "",
          "type": "uint256"
        }
      ],
      "payable": false,
      "stateMutability": "view",
      "type": "function"
    },
    {
      "constant": true,
      "inputs": [],
      "name": "minNextSlots",
      "outputs": [
        {
          "internalType": "uint256",
          "name": "",
          "type": "uint256"
        }
      ],
      "payable": false,
      "stateMutability": "view",
      "type": "function"
    },
    {
      "constant": true,
      "inputs": [
        {
          "internalType": "uint256",
          "name": "",
          "type": "uint256"
        }
      ],
      "name": "slotBid",
      "outputs": [
        {
          "internalType": "uint256",
          "name": "amount",
          "type": "uint256"
        },
        {
          "internalType": "bool",
          "name": "initialized",
          "type": "bool"
        },
        {
          "internalType": "uint256",
          "name": "targetProfit",
          "type": "uint256"
        },
        {
          "internalType": "uint256",
          "name": "sumtotalFees",
          "type": "uint256"
        }
      ],
      "payable": false,
      "stateMutability": "view",
      "type": "function"
    },
    {
      "constant": true,
      "inputs": [
        {
          "internalType": "uint256",
          "name": "",
          "type": "uint256"
        }
      ],
      "name": "slotWinner",
      "outputs": [
        {
          "internalType": "address payable",
          "name": "returnAddress",
          "type": "address"
        },
        {
          "internalType": "address",
          "name": "submitBatchAddress",
          "type": "address"
        },
        {
          "internalType": "string",
          "name": "url",
          "type": "string"
        }
      ],
      "payable": false,
      "stateMutability": "view",
      "type": "function"
    },
    {
      "constant": false,
      "inputs": [
        {
          "internalType": "uint32",
          "name": "_slot",
          "type": "uint32"
        },
        {
          "internalType": "string",
          "name": "_url",
          "type": "string"
        },
        {
          "internalType": "uint256",
          "name": "_targetProfit",
          "type": "uint256"
        },
        {
          "internalType": "uint256",
          "name": "_sumtotalFees",
          "type": "uint256"
        }
      ],
      "name": "bidBySelf",
      "outputs": [],
      "payable": true,
      "stateMutability": "payable",
      "type": "function"
    },
    {
      "constant": false,
      "inputs": [
        {
          "internalType": "uint32",
          "name": "_slot",
          "type": "uint32"
        },
        {
          "internalType": "uint256",
          "name": "_targetProfit",
          "type": "uint256"
        },
        {
          "internalType": "uint256",
          "name": "_sumtotalFees",
          "type": "uint256"
        },
        {
          "internalType": "address payable",
          "name": "_returnAddress",
          "type": "address"
        },
        {
          "internalType": "address",
          "name": "_submitBatchAddress",
          "type": "address"
        },
        {
          "internalType": "string",
          "name": "_url",
          "type": "string"
        }
      ],
      "name": "bidForOthers",
      "outputs": [],
      "payable": true,
      "stateMutability": "payable",
      "type": "function"
    },
    {
      "constant": true,
      "inputs": [
        {
          "internalType": "uint256",
          "name": "_slot",
          "type": "uint256"
        }
      ],
      "name": "getWinner",
      "outputs": [
        {
          "internalType": "address",
          "name": "",
          "type": "address"
        },
        {
          "internalType": "address",
          "name": "",
          "type": "address"
        },
        {
          "internalType": "string",
          "name": "",
          "type": "string"
        },
        {
          "internalType": "uint256",
          "name": "",
          "type": "uint256"
        }
      ],
      "payable": false,
      "stateMutability": "view",
      "type": "function"
    },
    {
      "constant": true,
      "inputs": [
        {
          "internalType": "uint256",
          "name": "_slot",
          "type": "uint256"
        },
        {
          "internalType": "address",
          "name": "_winner",
          "type": "address"
        }
      ],
      "name": "checkWinner",
      "outputs": [
        {
          "internalType": "bool",
          "name": "",
          "type": "bool"
        }
      ],
      "payable": false,
      "stateMutability": "view",
      "type": "function"
    },
    {
      "constant": true,
      "inputs": [],
      "name": "getBlockNumber",
      "outputs": [
        {
          "internalType": "uint256",
          "name": "",
          "type": "uint256"
        }
      ],
      "payable": false,
      "stateMutability": "view",
      "type": "function"
    },
    {
      "constant": true,
      "inputs": [
        {
          "internalType": "uint256",
          "name": "numBlock",
          "type": "uint256"
        }
      ],
      "name": "block2slot",
      "outputs": [
        {
          "internalType": "uint32",
          "name": "",
          "type": "uint32"
        }
      ],
      "payable": false,
      "stateMutability": "view",
      "type": "function"
    },
    {
      "constant": true,
      "inputs": [],
      "name": "currentSlot",
      "outputs": [
        {
          "internalType": "uint32",
          "name": "",
          "type": "uint32"
        }
      ],
      "payable": false,
      "stateMutability": "view",
      "type": "function"
    },
    {
      "constant": true,
      "inputs": [
        {
          "internalType": "uint32",
          "name": "slot",
          "type": "uint32"
        }
      ],
      "name": "getBlockBySlot",
      "outputs": [
        {
          "internalType": "uint256",
          "name": "",
          "type": "uint256"
        }
      ],
      "payable": false,
      "stateMutability": "view",
      "type": "function"
    }
  ],
  "bytecode": "0x60806040523480156200001157600080fd5b50604051620019513803806200195183398181016040526101208110156200003857600080fd5b81019080805190602001909291908051906020019092919080519060200190929190805190602001909291908051906020019092919080519060200190929190805190602001909291908051906020019092919080516040519392919084640100000000821115620000a957600080fd5b83820191506020820185811115620000c057600080fd5b8251866001820283011164010000000082111715620000de57600080fd5b8083526020830192505050908051906020019080838360005b8381101562000114578082015181840152602081019050620000f7565b50505050905090810190601f168015620001425780820380516001836020036101000a031916815260200191505b506040525050508562000163620002ef640100000000026401000000009004565b016002819055508860038190555087600560006101000a81548173ffffffffffffffffffffffffffffffffffffffff021916908373ffffffffffffffffffffffffffffffffffffffff160217905550866000806101000a81548163ffffffff021916908363ffffffff16021790555085600181905550846006819055508360048190555060405180606001604052808473ffffffffffffffffffffffffffffffffffffffff1681526020018373ffffffffffffffffffffffffffffffffffffffff16815260200182815250600760008201518160000160006101000a81548173ffffffffffffffffffffffffffffffffffffffff021916908373ffffffffffffffffffffffffffffffffffffffff16021790555060208201518160010160006101000a81548173ffffffffffffffffffffffffffffffffffffffff021916908373ffffffffffffffffffffffffffffffffffffffff1602179055506040820151816002019080519060200190620002dc929190620002f7565b50905050505050505050505050620003a6565b600043905090565b828054600181600116156101000203166002900490600052602060002090601f016020900481019282601f106200033a57805160ff19168380011785556200036b565b828001600101855582156200036b579182015b828111156200036a5782518255916020019190600101906200034d565b5b5090506200037a91906200037e565b5090565b620003a391905b808211156200039f57600081600090555060010162000385565b5090565b90565b61159b80620003b66000396000f3fe608060405260043610610126576000357c0100000000000000000000000000000000000000000000000000000000900480635938e4f9116100b2578063838dd74311610081578063838dd743146105c95780638f42883f1461061f5780639665432714610739578063a87a2ead146107d6578063b859605a1461083157610126565b80635938e4f9146104e7578063654a2bbb1461051e5780637437681e1461057357806375986e451461059e57610126565b80634129b2c9116100f95780634129b2c91461022b578063429e95b41461034c57806342cbb15c146103b457806346025a12146103df5780634cdc9c63146104bc57610126565b8063227b03541461012b5780633359632e1461019e5780633a117e55146101d55780633e109a1914610200575b600080fd5b34801561013757600080fd5b506101846004803603604081101561014e57600080fd5b8101908080359060200190929190803573ffffffffffffffffffffffffffffffffffffffff169060200190929190505050610927565b604051808215151515815260200191505060405180910390f35b3480156101aa57600080fd5b506101b3610a10565b604051808263ffffffff1663ffffffff16815260200191505060405180910390f35b3480156101e157600080fd5b506101ea610a27565b6040518082815260200191505060405180910390f35b34801561020c57600080fd5b50610215610a2d565b6040518082815260200191505060405180910390f35b34801561023757600080fd5b506102646004803603602081101561024e57600080fd5b8101908080359060200190929190505050610a33565b604051808573ffffffffffffffffffffffffffffffffffffffff1673ffffffffffffffffffffffffffffffffffffffff1681526020018473ffffffffffffffffffffffffffffffffffffffff1673ffffffffffffffffffffffffffffffffffffffff16815260200180602001838152602001828103825284818151815260200191508051906020019080838360005b8381101561030e5780820151818401526020810190506102f3565b50505050905090810190601f16801561033b5780820380516001836020036101000a031916815260200191505b509550505050505060405180910390f35b34801561035857600080fd5b506103856004803603602081101561036f57600080fd5b8101908080359060200190929190505050610d08565b604051808581526020018415151515815260200183815260200182815260200194505050505060405180910390f35b3480156103c057600080fd5b506103c9610d45565b6040518082815260200191505060405180910390f35b6104ba600480360360c08110156103f557600080fd5b81019080803563ffffffff1690602001909291908035906020019092919080359060200190929190803573ffffffffffffffffffffffffffffffffffffffff169060200190929190803573ffffffffffffffffffffffffffffffffffffffff1690602001909291908035906020019064010000000081111561047657600080fd5b82018360208201111561048857600080fd5b803590602001918460018302840111640100000000831117156104aa57600080fd5b9091929391929390505050610d4d565b005b3480156104c857600080fd5b506104d1610ef3565b6040518082815260200191505060405180910390f35b3480156104f357600080fd5b506104fc610ef9565b604051808263ffffffff1663ffffffff16815260200191505060405180910390f35b34801561052a57600080fd5b5061055d6004803603602081101561054157600080fd5b81019080803563ffffffff169060200190929190505050610f0e565b6040518082815260200191505060405180910390f35b34801561057f57600080fd5b50610588610f35565b6040518082815260200191505060405180910390f35b3480156105aa57600080fd5b506105b3610f3b565b6040518082815260200191505060405180910390f35b3480156105d557600080fd5b50610602600480360360208110156105ec57600080fd5b8101908080359060200190929190505050610f41565b604051808381526020018281526020019250505060405180910390f35b34801561062b57600080fd5b506106586004803603602081101561064257600080fd5b8101908080359060200190929190505050610f65565b604051808473ffffffffffffffffffffffffffffffffffffffff1673ffffffffffffffffffffffffffffffffffffffff1681526020018373ffffffffffffffffffffffffffffffffffffffff1673ffffffffffffffffffffffffffffffffffffffff16815260200180602001828103825283818151815260200191508051906020019080838360005b838110156106fc5780820151818401526020810190506106e1565b50505050905090810190601f1680156107295780820380516001836020036101000a031916815260200191505b5094505050505060405180910390f35b6107d46004803603608081101561074f57600080fd5b81019080803563ffffffff1690602001909291908035906020019064010000000081111561077c57600080fd5b82018360208201111561078e57600080fd5b803590602001918460018302840111640100000000831117156107b057600080fd5b90919293919293908035906020019092919080359060200190929190505050611067565b005b3480156107e257600080fd5b5061080f600480360360208110156107f957600080fd5b810190808035906020019092919050505061120b565b604051808263ffffffff1663ffffffff16815260200191505060405180910390f35b34801561083d57600080fd5b5061084661124d565b604051808473ffffffffffffffffffffffffffffffffffffffff1673ffffffffffffffffffffffffffffffffffffffff1681526020018373ffffffffffffffffffffffffffffffffffffffff1673ffffffffffffffffffffffffffffffffffffffff16815260200180602001828103825283818151815260200191508051906020019080838360005b838110156108ea5780820151818401526020810190506108cf565b50505050905090810190601f1680156109175780820380516001836020036101000a031916815260200191505b5094505050505060405180910390f35b60008173ffffffffffffffffffffffffffffffffffffffff16600760010160009054906101000a900473ffffffffffffffffffffffffffffffffffffffff1673ffffffffffffffffffffffffffffffffffffffff16141561098b5760019050610a0a565b6000600a600085815260200190815260200160002060010160009054906101000a900473ffffffffffffffffffffffffffffffffffffffff1690508273ffffffffffffffffffffffffffffffffffffffff168173ffffffffffffffffffffffffffffffffffffffff161415610a04576001915050610a0a565b60009150505b92915050565b6000610a22610a1d610d45565b61120b565b905090565b60015481565b60065481565b6000806060600080600a600087815260200190815260200160002060010160009054906101000a900473ffffffffffffffffffffffffffffffffffffffff169050600073ffffffffffffffffffffffffffffffffffffffff168173ffffffffffffffffffffffffffffffffffffffff1614610c02576000600b60008881526020019081526020016000206000015490506000600a600089815260200190815260200160002060010160009054906101000a900473ffffffffffffffffffffffffffffffffffffffff1690506000600a60008a815260200190815260200160002060000160009054906101000a900473ffffffffffffffffffffffffffffffffffffffff1690506060600a60008b81526020019081526020016000206002018054600181600116156101000203166002900480601f016020809104026020016040519081016040528092919081815260200182805460018160011615610100020316600290048015610be55780601f10610bba57610100808354040283529160200191610be5565b820191906000526020600020905b815481529060010190602001808311610bc857829003601f168201915b505050505090508282828698509850985098505050505050610d01565b600760010160009054906101000a900473ffffffffffffffffffffffffffffffffffffffff16600760000160009054906101000a900473ffffffffffffffffffffffffffffffffffffffff1660076002016000829250818054600181600116156101000203166002900480601f016020809104026020016040519081016040528092919081815260200182805460018160011615610100020316600290048015610ced5780601f10610cc257610100808354040283529160200191610ced565b820191906000526020600020905b815481529060010190602001808311610cd057829003601f168201915b505050505091508090509450945094509450505b9193509193565b600b6020528060005260406000206000915090508060000154908060010160009054906101000a900460ff16908060020154908060030154905084565b600043905090565b600454610d58610a10565b63ffffffff16018763ffffffff161015610dda576040517f08c379a000000000000000000000000000000000000000000000000000000000815260040180806020018281038252601e8152602001807f546869732061756374696f6e20697320616c726561647920636c6f736564000081525060200191505060405180910390fd5b610de2611474565b60405180606001604052808673ffffffffffffffffffffffffffffffffffffffff1681526020018573ffffffffffffffffffffffffffffffffffffffff16815260200184848080601f016020809104026020016040519081016040528093929190818152602001838380828437600081840152601f19601f8201169050808301925050505050505081525090506000610e7d89838a8a61133d565b9050600560009054906101000a900473ffffffffffffffffffffffffffffffffffffffff1673ffffffffffffffffffffffffffffffffffffffff166108fc829081150290604051600060405180830381858888f19350505050158015610ee7573d6000803e3d6000fd5b50505050505050505050565b60025481565b6000809054906101000a900463ffffffff1681565b60008060009054906101000a900463ffffffff16820263ffffffff16600254019050919050565b60035481565b60045481565b600c6020528060005260406000206000915090508060000154908060010154905082565b600a6020528060005260406000206000915090508060000160009054906101000a900473ffffffffffffffffffffffffffffffffffffffff16908060010160009054906101000a900473ffffffffffffffffffffffffffffffffffffffff1690806002018054600181600116156101000203166002900480601f01602080910402602001604051908101604052809291908181526020018280546001816001161561010002031660029004801561105d5780601f106110325761010080835404028352916020019161105d565b820191906000526020600020905b81548152906001019060200180831161104057829003601f168201915b5050505050905083565b600454611072610a10565b63ffffffff16018563ffffffff1610156110f4576040517f08c379a000000000000000000000000000000000000000000000000000000000815260040180806020018281038252601e8152602001807f546869732061756374696f6e20697320616c726561647920636c6f736564000081525060200191505060405180910390fd5b6110fc611474565b60405180606001604052803373ffffffffffffffffffffffffffffffffffffffff1681526020013373ffffffffffffffffffffffffffffffffffffffff16815260200186868080601f016020809104026020016040519081016040528093929190818152602001838380828437600081840152601f19601f82011690508083019250505050505050815250905060006111978783868661133d565b9050600560009054906101000a900473ffffffffffffffffffffffffffffffffffffffff1673ffffffffffffffffffffffffffffffffffffffff166108fc829081150290604051600060405180830381858888f19350505050158015611201573d6000803e3d6000fd5b5050505050505050565b60006002548210156112205760009050611248565b6000809054906101000a900463ffffffff1663ffffffff1660025483038161124457fe5b0490505b919050565b60078060000160009054906101000a900473ffffffffffffffffffffffffffffffffffffffff16908060010160009054906101000a900473ffffffffffffffffffffffffffffffffffffffff1690806002018054600181600116156101000203166002900480601f0160208091040260200160405190810160405280929190818152602001828054600181600116156101000203166002900480156113335780601f1061130857610100808354040283529160200191611333565b820191906000526020600020905b81548152906001019060200180831161131657829003601f168201915b5050505050905083565b600080600090506000809050600b60008863ffffffff16815260200190815260200160002060010160009054906101000a900460ff161561137d5761137e565b5b85600a60008963ffffffff16815260200190815260200160002060008201518160000160006101000a81548173ffffffffffffffffffffffffffffffffffffffff021916908373ffffffffffffffffffffffffffffffffffffffff16021790555060208201518160010160006101000a81548173ffffffffffffffffffffffffffffffffffffffff021916908373ffffffffffffffffffffffffffffffffffffffff16021790555060408201518160020190805190602001906114429291906114c1565b5090505080600b60008963ffffffff168152602001908152602001600020600001819055508192505050949350505050565b6040518060600160405280600073ffffffffffffffffffffffffffffffffffffffff168152602001600073ffffffffffffffffffffffffffffffffffffffff168152602001606081525090565b828054600181600116156101000203166002900490600052602060002090601f016020900481019282601f1061150257805160ff1916838001178555611530565b82800160010185558215611530579182015b8281111561152f578251825591602001919060010190611514565b5b50905061153d9190611541565b5090565b61156391905b8082111561155f576000816000905550600101611547565b5090565b9056fea265627a7a7231582005c6c24b053f341376e9cc728e0a84380d6167d32db58a2ed20d108e719b746e64736f6c634300050f0032",
  "source": "pragma solidity ^0.5.15;\r\n\r\ncontract BurnAuction {\r\n    \r\n\t// 1 next 1.3 bonus 10 1.3 10 0.13  1.3-1-0.13=burned\r\n\t// discuss if you want to incentivize early bidders for slots using bonus skip for now\r\n\t// todo make uint types explicit\r\n\t// discuss need for default Coordinator-keep it\r\n\t// discuss need to prevent submit batches multiple times after knowing hubble architecture\r\n\t\t\r\n\t// number of blocks available in slot\r\n\tuint32 public blocksPerSlot;\r\n\t// number of blocks after contract deployment for genesisBlock number\r\n\tuint public delayGenesis;\r\n\t// First block where the first slot begins\r\n    uint public genesisBlock;\r\n\t// Maximum rollup transactions: either off-chain or on-chain transactions\r\n    uint public maxTx;\r\n\t// Min differance between currentslot and auction slots\r\n\tuint public minNextSlots;\r\n\t// Burn Address\r\n    address payable burnAddress;\r\n\t// Minimum bid to enter the auction\r\n\tuint public minBid;\r\n    // Default Coordinator\r\n\t// will have to decide if we want to keep default Coordinator or not\r\n    Coordinator public coDefault;\r\n\t\r\n\t// Coordinator structure\r\n    struct Coordinator {\r\n\t    // address to return unsuccessful bid funds back\r\n        address payable returnAddress;\r\n\t\t// Coordinator address having right to submit batch\r\n        address submitBatchAddress;\r\n\t\t// Coordinator url \r\n        string url;\r\n    }\r\n\r\n    // bid structure\r\n    struct Bid {\r\n\t    // bid amount = sumtotalFees - targetProfit\r\n        uint amount;\r\n\t\t// used to indicate active auction for slot\r\n        bool initialized;\r\n\t\t// profit per auction slot by Coordinator\r\n        uint targetProfit;\r\n\t    // sum of fees of all transactions included in slot\r\n\t    uint sumtotalFees;\r\n    }\r\n\t\r\n\t// information of slot structure\r\n    struct InfoSlot {\r\n        // current price of slot\r\n        uint slotPrice;\r\n        // current max target profit on slot\r\n\t\tuint maxtargetProfit;\r\n    }\r\n\t\r\n\t// Mappings\r\n\t// mapping to control winner of slot\r\n    mapping(uint => Coordinator) public slotWinner;\r\n    // mapping to control bid by slot\r\n    mapping(uint => Bid) public slotBid;\r\n    // mapping to control information of slot\r\n    mapping(uint => InfoSlot) public infoSlot;\r\n\t\r\n\t// events\r\n\t/**\r\n     * @dev Event called when an Coordinator beat the current best bid of an ongoing auction\r\n     */\r\n    event currentBestBid(uint32 slot, uint amount, uint sumtotalFees, uint targetProfit, address Coordinator, string url);\r\n    \r\n\t// todo move all governance parameters in Constructor-done\r\n\t/**\r\n     * @dev BurnAuction Constructor\r\n     * Set first block where the first slot begin\r\n     * @param _maxTx maximum transactions\r\n     * @param _burnAddress burner address\r\n\t * @param _blocksPerSlot number of blocks in slot\r\n\t * @param _delayGenesis delay genesisBlock by this\r\n\t * @param _minBid minimum bid for a auction slot\r\n\t * @param _minNextSlots differance between currentslot and auction slot\r\n     */\r\n    constructor(\r\n\t    uint256 _maxTx,\r\n\t    address payable _burnAddress,\r\n\t    uint32 _blocksPerSlot,\r\n\t\tuint _delayGenesis,\r\n\t\tuint _minBid,\r\n\t\tuint _minNextSlots,\r\n\t\taddress payable coReturnAddress,\r\n\t\taddress coSubmitBatchAddress,\r\n\t\tstring memory coUrl\r\n\t) public {\r\n        genesisBlock = getBlockNumber() + _delayGenesis;\r\n        maxTx = _maxTx;\r\n        burnAddress = _burnAddress;\r\n\t\tblocksPerSlot = _blocksPerSlot;\r\n\t\tdelayGenesis = _delayGenesis;\r\n\t\tminBid = _minBid;\r\n\t\tminNextSlots = _minNextSlots;\t\t\r\n\t\tcoDefault = Coordinator(coReturnAddress,coSubmitBatchAddress,coUrl);\r\n    }\r\n\t\r\n\t// functions\r\n\t//update with natspec comments\r\n\t\r\n\tfunction bid(\r\n\t    uint32 slot,\r\n\t\tCoordinator memory co,\r\n\t\tuint _targetProfit,\r\n\t\tuint _sumtotalFees\r\n\t) internal returns (uint) {\r\n\t    uint burnBid = 0;\r\n\t\tuint amount = 0;\r\n\t\t//require checks\r\n\t\tif(slotBid[slot].initialized) {\r\n\t\t\r\n\t\t} else {\r\n\t\t\r\n\t\t}\r\n\t\tslotWinner[slot] = co;\r\n        slotBid[slot].amount = amount;\r\n\t\t//update infoSlot\r\n\t\t//emit event\r\n\t\treturn burnBid;\r\n\t}\r\n\t\r\n\t//complete them-done\r\n\t\r\n\t//function by which coordinator bids for himself\r\n\tfunction bidBySelf(uint32 _slot, string calldata _url, uint _targetProfit, uint _sumtotalFees) external payable {\r\n\t    require(_slot >= currentSlot() + minNextSlots, 'This auction is already closed');\r\n\t    Coordinator memory co = Coordinator(msg.sender, msg.sender, _url);\r\n\t\tuint burnBid = bid(_slot,co,_targetProfit,_sumtotalFees);\r\n\t\tburnAddress.transfer(burnBid);\r\n\t}\r\n\t\r\n\t//coordinator bids using others address arguments\r\n\tfunction bidForOthers(\r\n\t    uint32 _slot,\r\n\t\tuint _targetProfit,\r\n\t\tuint _sumtotalFees,\r\n\t\taddress payable _returnAddress,\r\n\t\taddress _submitBatchAddress,\r\n\t\tstring calldata _url\r\n\t) external payable {\r\n\t    require(_slot >= currentSlot() + minNextSlots, 'This auction is already closed');\r\n\t\tCoordinator memory co = Coordinator(_returnAddress, _submitBatchAddress, _url);\r\n\t\tuint burnBid = bid(_slot,co,_targetProfit,_sumtotalFees);\r\n\t\tburnAddress.transfer(burnBid);\r\n\t}\r\n\t\r\n\t// function needs to be exposed-done\r\n\t/**\r\n     * @dev Retrieve slot winner\r\n     * @return submitBatchAddress,returnAddress,Coordinator url,bidamount\r\n     */\r\n\tfunction getWinner(uint _slot) external view returns (address, address, string memory, uint) {\r\n\t    address batchSubmitter= slotWinner[_slot].submitBatchAddress;\r\n\t\tif(batchSubmitter != address(0x00)){ \r\n\t\tuint256 amount = slotBid[_slot].amount;\r\n        address winner = slotWinner[_slot].submitBatchAddress;\r\n        address beneficiary = slotWinner[_slot].returnAddress;\r\n        string memory url = slotWinner[_slot].url;\r\n        return (winner, beneficiary, url, amount);\r\n\t\t} else {\r\n\t\treturn (coDefault.submitBatchAddress, coDefault.returnAddress, coDefault.url, 0);\r\n\t\t}\r\n\t}\r\n\t\r\n\tfunction checkWinner(uint _slot, address _winner) external view returns (bool) {\r\n\t    if (coDefault.submitBatchAddress == _winner) return true;\r\n\t\taddress coordinator = slotWinner[_slot].submitBatchAddress;\r\n\t\tif(coordinator == _winner){\r\n\t\t\treturn true;\r\n\t\t} else {\r\n\t\t\treturn false;\r\n\t\t}\r\n\t}\r\n\t\r\n\t//helper functions\r\n\t/**\r\n     * @dev Retrieve block number\r\n     * @return current block number\r\n     */\r\n    function getBlockNumber() public view returns (uint) {\r\n        return block.number;\r\n    }\r\n\r\n    /**\r\n     * @dev Calculate slot from block number\r\n     * @param numBlock block number\r\n     * @return slot number\r\n     */\r\n    function block2slot(uint numBlock) public view returns (uint32) {\r\n        if (numBlock < genesisBlock) return 0;\r\n        return uint32((numBlock - genesisBlock) / (blocksPerSlot));\r\n    }\r\n\t\r\n\t/**\r\n     * @dev Retrieve current slot\r\n     * @return slot number\r\n     */\r\n    function currentSlot() public view returns (uint32) {\r\n        return block2slot(getBlockNumber());\r\n    }\r\n\r\n    /**\r\n     * @dev Retrieve the first block number for a given slot\r\n     * @param slot slot number\r\n     * @return block number\r\n     */\r\n    function getBlockBySlot(uint32 slot) public view returns (uint) {\r\n        return (genesisBlock + slot*blocksPerSlot);\r\n    }\r\n}",
  "sourcePath": "C:\\Users\\lazypuppet\\ethereum\\snaketh4x0r\\BurnAuctionProject\\contracts\\BurnAuction.sol",
  "compiler": {
    "name": "solc",
    "version": "0.5.15+commit.6a57276f.Emscripten.clang"
  },
  "schemaVersion": "3.1.0",
  "updatedAt": "2020-08-13T19:23:16.122Z",
  "devdoc": {
    "methods": {
      "block2slot(uint256)": {
        "details": "Calculate slot from block number",
        "params": {
          "numBlock": "block number"
        },
        "return": "slot number"
      },
      "constructor": {
        "details": "BurnAuction Constructor Set first block where the first slot begin",
        "params": {
          "_blocksPerSlot": "number of blocks in slot",
          "_burnAddress": "burner address",
          "_delayGenesis": "delay genesisBlock by this",
          "_maxTx": "maximum transactions",
          "_minBid": "minimum bid for a auction slot",
          "_minNextSlots": "differance between currentslot and auction slot"
        }
      },
      "currentSlot()": {
        "details": "Retrieve current slot",
        "return": "slot number"
      },
      "getBlockBySlot(uint32)": {
        "details": "Retrieve the first block number for a given slot",
        "params": {
          "slot": "slot number"
        },
        "return": "block number"
      },
      "getBlockNumber()": {
        "details": "Retrieve block number",
        "return": "current block number"
      },
      "getWinner(uint256)": {
        "details": "Retrieve slot winner",
        "return": "submitBatchAddress,returnAddress,Coordinator url,bidamount"
      }
    }
  },
  "userdoc": {
    "methods": {}
  }
}