{
  "contractName": "BurnAuction",
  "abi": [
    {
      "inputs": [
        {
          "internalType": "uint256",
          "name": "_maxTx",
          "type": "uint256"
        },
        {
          "internalType": "address payable",
          "name": "_burnAddress",
          "type": "address"
        },
        {
          "internalType": "uint32",
          "name": "_blocksPerSlot",
          "type": "uint32"
        },
        {
          "internalType": "uint256",
          "name": "_delayGenesis",
          "type": "uint256"
        },
        {
          "internalType": "uint256",
          "name": "_minBid",
          "type": "uint256"
        },
        {
          "internalType": "uint256",
          "name": "_minNextSlots",
          "type": "uint256"
        }
      ],
      "payable": false,
      "stateMutability": "nonpayable",
      "type": "constructor"
    },
    {
      "anonymous": false,
      "inputs": [
        {
          "indexed": false,
          "internalType": "uint32",
          "name": "slot",
          "type": "uint32"
        },
        {
          "indexed": false,
          "internalType": "uint256",
          "name": "amount",
          "type": "uint256"
        },
        {
          "indexed": false,
          "internalType": "uint256",
          "name": "sumtotalFees",
          "type": "uint256"
        },
        {
          "indexed": false,
          "internalType": "uint256",
          "name": "targetProfit",
          "type": "uint256"
        },
        {
          "indexed": false,
          "internalType": "address",
          "name": "Coordinator",
          "type": "address"
        },
        {
          "indexed": false,
          "internalType": "string",
          "name": "url",
          "type": "string"
        }
      ],
      "name": "currentBestBid",
      "type": "event"
    },
    {
      "constant": true,
      "inputs": [],
      "name": "blocksPerSlot",
      "outputs": [
        {
          "internalType": "uint32",
          "name": "",
          "type": "uint32"
        }
      ],
      "payable": false,
      "stateMutability": "view",
      "type": "function"
    },
    {
      "constant": true,
      "inputs": [],
      "name": "coDefault",
      "outputs": [
        {
          "internalType": "address payable",
          "name": "beneficiaryAddress",
          "type": "address"
        },
        {
          "internalType": "address",
          "name": "submitBatchAddress",
          "type": "address"
        },
        {
          "internalType": "address",
          "name": "withdrawAddress",
          "type": "address"
        },
        {
          "internalType": "string",
          "name": "url",
          "type": "string"
        }
      ],
      "payable": false,
      "stateMutability": "view",
      "type": "function"
    },
    {
      "constant": true,
      "inputs": [],
      "name": "delayGenesis",
      "outputs": [
        {
          "internalType": "uint256",
          "name": "",
          "type": "uint256"
        }
      ],
      "payable": false,
      "stateMutability": "view",
      "type": "function"
    },
    {
      "constant": true,
      "inputs": [],
      "name": "genesisBlock",
      "outputs": [
        {
          "internalType": "uint256",
          "name": "",
          "type": "uint256"
        }
      ],
      "payable": false,
      "stateMutability": "view",
      "type": "function"
    },
    {
      "constant": true,
      "inputs": [
        {
          "internalType": "uint256",
          "name": "",
          "type": "uint256"
        }
      ],
      "name": "infoSlot",
      "outputs": [
        {
          "internalType": "uint256",
          "name": "slotPrice",
          "type": "uint256"
        },
        {
          "internalType": "uint256",
          "name": "maxtargetProfit",
          "type": "uint256"
        },
        {
          "internalType": "bool",
          "name": "fullFilled",
          "type": "bool"
        }
      ],
      "payable": false,
      "stateMutability": "view",
      "type": "function"
    },
    {
      "constant": true,
      "inputs": [],
      "name": "maxTx",
      "outputs": [
        {
          "internalType": "uint256",
          "name": "",
          "type": "uint256"
        }
      ],
      "payable": false,
      "stateMutability": "view",
      "type": "function"
    },
    {
      "constant": true,
      "inputs": [],
      "name": "minBid",
      "outputs": [
        {
          "internalType": "uint256",
          "name": "",
          "type": "uint256"
        }
      ],
      "payable": false,
      "stateMutability": "view",
      "type": "function"
    },
    {
      "constant": true,
      "inputs": [],
      "name": "minNextSlots",
      "outputs": [
        {
          "internalType": "uint256",
          "name": "",
          "type": "uint256"
        }
      ],
      "payable": false,
      "stateMutability": "view",
      "type": "function"
    },
    {
      "constant": true,
      "inputs": [
        {
          "internalType": "uint256",
          "name": "",
          "type": "uint256"
        }
      ],
      "name": "slotBid",
      "outputs": [
        {
          "internalType": "uint256",
          "name": "amount",
          "type": "uint256"
        },
        {
          "internalType": "bool",
          "name": "initialized",
          "type": "bool"
        },
        {
          "internalType": "uint256",
          "name": "targetProfit",
          "type": "uint256"
        },
        {
          "internalType": "uint256",
          "name": "sumtotalFees",
          "type": "uint256"
        }
      ],
      "payable": false,
      "stateMutability": "view",
      "type": "function"
    },
    {
      "constant": true,
      "inputs": [
        {
          "internalType": "uint256",
          "name": "",
          "type": "uint256"
        }
      ],
      "name": "slotWinner",
      "outputs": [
        {
          "internalType": "address payable",
          "name": "beneficiaryAddress",
          "type": "address"
        },
        {
          "internalType": "address",
          "name": "submitBatchAddress",
          "type": "address"
        },
        {
          "internalType": "address",
          "name": "withdrawAddress",
          "type": "address"
        },
        {
          "internalType": "string",
          "name": "url",
          "type": "string"
        }
      ],
      "payable": false,
      "stateMutability": "view",
      "type": "function"
    },
    {
      "constant": false,
      "inputs": [
        {
          "internalType": "uint32",
          "name": "_slot",
          "type": "uint32"
        },
        {
          "internalType": "string",
          "name": "_url",
          "type": "string"
        },
        {
          "internalType": "uint256",
          "name": "_targetProfit",
          "type": "uint256"
        },
        {
          "internalType": "uint256",
          "name": "_sumtotalFees",
          "type": "uint256"
        }
      ],
      "name": "bidBySelf",
      "outputs": [],
      "payable": true,
      "stateMutability": "payable",
      "type": "function"
    },
    {
      "constant": false,
      "inputs": [
        {
          "internalType": "uint32",
          "name": "_slot",
          "type": "uint32"
        },
        {
          "internalType": "uint256",
          "name": "_targetProfit",
          "type": "uint256"
        },
        {
          "internalType": "uint256",
          "name": "_sumtotalFees",
          "type": "uint256"
        },
        {
          "internalType": "address payable",
          "name": "_beneficiaryAddress",
          "type": "address"
        },
        {
          "internalType": "address",
          "name": "_submitBatchAddress",
          "type": "address"
        },
        {
          "internalType": "address",
          "name": "_withdrawAddress",
          "type": "address"
        },
        {
          "internalType": "string",
          "name": "_url",
          "type": "string"
        }
      ],
      "name": "bidForOthers",
      "outputs": [],
      "payable": true,
      "stateMutability": "payable",
      "type": "function"
    },
    {
      "constant": false,
      "inputs": [
        {
          "internalType": "uint256",
          "name": "_slot",
          "type": "uint256"
        }
      ],
      "name": "getWinner",
      "outputs": [
        {
          "internalType": "address",
          "name": "",
          "type": "address"
        },
        {
          "internalType": "address",
          "name": "",
          "type": "address"
        },
        {
          "internalType": "string",
          "name": "",
          "type": "string"
        },
        {
          "internalType": "uint256",
          "name": "",
          "type": "uint256"
        }
      ],
      "payable": false,
      "stateMutability": "nonpayable",
      "type": "function"
    },
    {
      "constant": false,
      "inputs": [
        {
          "internalType": "uint256",
          "name": "_slot",
          "type": "uint256"
        },
        {
          "internalType": "address",
          "name": "_coordinator",
          "type": "address"
        }
      ],
      "name": "checkWinner",
      "outputs": [
        {
          "internalType": "bool",
          "name": "",
          "type": "bool"
        }
      ],
      "payable": false,
      "stateMutability": "nonpayable",
      "type": "function"
    },
    {
      "constant": true,
      "inputs": [],
      "name": "getBlockNumber",
      "outputs": [
        {
          "internalType": "uint256",
          "name": "",
          "type": "uint256"
        }
      ],
      "payable": false,
      "stateMutability": "view",
      "type": "function"
    },
    {
      "constant": true,
      "inputs": [
        {
          "internalType": "uint256",
          "name": "numBlock",
          "type": "uint256"
        }
      ],
      "name": "block2slot",
      "outputs": [
        {
          "internalType": "uint32",
          "name": "",
          "type": "uint32"
        }
      ],
      "payable": false,
      "stateMutability": "view",
      "type": "function"
    },
    {
      "constant": true,
      "inputs": [],
      "name": "currentSlot",
      "outputs": [
        {
          "internalType": "uint32",
          "name": "",
          "type": "uint32"
        }
      ],
      "payable": false,
      "stateMutability": "view",
      "type": "function"
    },
    {
      "constant": true,
      "inputs": [
        {
          "internalType": "uint32",
          "name": "slot",
          "type": "uint32"
        }
      ],
      "name": "getBlockBySlot",
      "outputs": [
        {
          "internalType": "uint256",
          "name": "",
          "type": "uint256"
        }
      ],
      "payable": false,
      "stateMutability": "view",
      "type": "function"
    },
    {
      "constant": true,
      "inputs": [
        {
          "internalType": "uint32",
          "name": "slot",
          "type": "uint32"
        }
      ],
      "name": "fullFilledSlot",
      "outputs": [
        {
          "internalType": "bool",
          "name": "",
          "type": "bool"
        }
      ],
      "payable": false,
      "stateMutability": "view",
      "type": "function"
    }
  ],
  "bytecode": "0x608060405234801561001057600080fd5b5060405161150c38038061150c833981810160405260c081101561003357600080fd5b810190808051906020019092919080519060200190929190805190602001909291908051906020019092919080519060200190929190805190602001909291905050508261008e61011d640100000000026401000000009004565b016002819055508560038190555084600560006101000a81548173ffffffffffffffffffffffffffffffffffffffff021916908373ffffffffffffffffffffffffffffffffffffffff160217905550836000806101000a81548163ffffffff021916908363ffffffff160217905550826001819055508160068190555080600481905550505050505050610125565b600043905090565b6113d8806101346000396000f3fe608060405260043610610131576000357c010000000000000000000000000000000000000000000000000000000090048063654a2bbb116100bd57806390f8ad4b1161008157806390f8ad4b146106a557806396654327146107a2578063a87a2ead1461083f578063b859605a1461089a578063f4c0d4ee146109c357610131565b8063654a2bbb1461044c5780637437681e146104a157806375986e45146104cc578063838dd743146104f75780638f42883f1461055857610131565b80634129b2c9116101045780634129b2c914610236578063429e95b41461035757806342cbb15c146103bf5780634cdc9c63146103ea5780635938e4f91461041557610131565b8063227b0354146101365780633359632e146101a95780633a117e55146101e05780633e109a191461020b575b600080fd5b34801561014257600080fd5b5061018f6004803603604081101561015957600080fd5b8101908080359060200190929190803573ffffffffffffffffffffffffffffffffffffffff169060200190929190505050610a1c565b604051808215151515815260200191505060405180910390f35b3480156101b557600080fd5b506101be610aa2565b604051808263ffffffff1663ffffffff16815260200191505060405180910390f35b3480156101ec57600080fd5b506101f5610ab9565b6040518082815260200191505060405180910390f35b34801561021757600080fd5b50610220610abf565b6040518082815260200191505060405180910390f35b34801561024257600080fd5b5061026f6004803603602081101561025957600080fd5b8101908080359060200190929190505050610ac5565b604051808573ffffffffffffffffffffffffffffffffffffffff1673ffffffffffffffffffffffffffffffffffffffff1681526020018473ffffffffffffffffffffffffffffffffffffffff1673ffffffffffffffffffffffffffffffffffffffff16815260200180602001838152602001828103825284818151815260200191508051906020019080838360005b838110156103195780820151818401526020810190506102fe565b50505050905090810190601f1680156103465780820380516001836020036101000a031916815260200191505b509550505050505060405180910390f35b34801561036357600080fd5b506103906004803603602081101561037a57600080fd5b8101908080359060200190929190505050610c26565b604051808581526020018415151515815260200183815260200182815260200194505050505060405180910390f35b3480156103cb57600080fd5b506103d4610c63565b6040518082815260200191505060405180910390f35b3480156103f657600080fd5b506103ff610c6b565b6040518082815260200191505060405180910390f35b34801561042157600080fd5b5061042a610c71565b604051808263ffffffff1663ffffffff16815260200191505060405180910390f35b34801561045857600080fd5b5061048b6004803603602081101561046f57600080fd5b81019080803563ffffffff169060200190929190505050610c86565b6040518082815260200191505060405180910390f35b3480156104ad57600080fd5b506104b6610cad565b6040518082815260200191505060405180910390f35b3480156104d857600080fd5b506104e1610cb3565b6040518082815260200191505060405180910390f35b34801561050357600080fd5b506105306004803603602081101561051a57600080fd5b8101908080359060200190929190505050610cb9565b6040518084815260200183815260200182151515158152602001935050505060405180910390f35b34801561056457600080fd5b506105916004803603602081101561057b57600080fd5b8101908080359060200190929190505050610cf0565b604051808573ffffffffffffffffffffffffffffffffffffffff1673ffffffffffffffffffffffffffffffffffffffff1681526020018473ffffffffffffffffffffffffffffffffffffffff1673ffffffffffffffffffffffffffffffffffffffff1681526020018373ffffffffffffffffffffffffffffffffffffffff1673ffffffffffffffffffffffffffffffffffffffff16815260200180602001828103825283818151815260200191508051906020019080838360005b8381101561066757808201518184015260208101905061064c565b50505050905090810190601f1680156106945780820380516001836020036101000a031916815260200191505b509550505050505060405180910390f35b6107a0600480360360e08110156106bb57600080fd5b81019080803563ffffffff1690602001909291908035906020019092919080359060200190929190803573ffffffffffffffffffffffffffffffffffffffff169060200190929190803573ffffffffffffffffffffffffffffffffffffffff169060200190929190803573ffffffffffffffffffffffffffffffffffffffff1690602001909291908035906020019064010000000081111561075c57600080fd5b82018360208201111561076e57600080fd5b8035906020019184600183028401116401000000008311171561079057600080fd5b9091929391929390505050610e18565b005b61083d600480360360808110156107b857600080fd5b81019080803563ffffffff169060200190929190803590602001906401000000008111156107e557600080fd5b8201836020820111156107f757600080fd5b8035906020019184600183028401116401000000008311171561081957600080fd5b90919293919293908035906020019092919080359060200190929190505050610fdb565b005b34801561084b57600080fd5b506108786004803603602081101561086257600080fd5b810190808035906020019092919050505061119b565b604051808263ffffffff1663ffffffff16815260200191505060405180910390f35b3480156108a657600080fd5b506108af6111dd565b604051808573ffffffffffffffffffffffffffffffffffffffff1673ffffffffffffffffffffffffffffffffffffffff1681526020018473ffffffffffffffffffffffffffffffffffffffff1673ffffffffffffffffffffffffffffffffffffffff1681526020018373ffffffffffffffffffffffffffffffffffffffff1673ffffffffffffffffffffffffffffffffffffffff16815260200180602001828103825283818151815260200191508051906020019080838360005b8381101561098557808201518184015260208101905061096a565b50505050905090810190601f1680156109b25780820380516001836020036101000a031916815260200191505b509550505050505060405180910390f35b3480156109cf57600080fd5b50610a02600480360360208110156109e657600080fd5b81019080803563ffffffff1690602001909291905050506112f3565b604051808215151515815260200191505060405180910390f35b600080600b600085815260200190815260200160002060010160009054906101000a900473ffffffffffffffffffffffffffffffffffffffff1690508273ffffffffffffffffffffffffffffffffffffffff168173ffffffffffffffffffffffffffffffffffffffff161415610a96576001915050610a9c565b60009150505b92915050565b6000610ab4610aaf610c63565b61119b565b905090565b60015481565b60065481565b6000806060600080600c60008781526020019081526020016000206000015490506000600b600088815260200190815260200160002060010160009054906101000a900473ffffffffffffffffffffffffffffffffffffffff1690506000600b600089815260200190815260200160002060000160009054906101000a900473ffffffffffffffffffffffffffffffffffffffff1690506060600b60008a81526020019081526020016000206003018054600181600116156101000203166002900480601f016020809104026020016040519081016040528092919081815260200182805460018160011615610100020316600290048015610c085780601f10610bdd57610100808354040283529160200191610c08565b820191906000526020600020905b815481529060010190602001808311610beb57829003601f168201915b50505050509050828282869750975097509750505050509193509193565b600c6020528060005260406000206000915090508060000154908060010160009054906101000a900460ff16908060020154908060030154905084565b600043905090565b60025481565b6000809054906101000a900463ffffffff1681565b60008060009054906101000a900463ffffffff16820263ffffffff16600254019050919050565b60035481565b60045481565b600d6020528060005260406000206000915090508060000154908060010154908060020160009054906101000a900460ff16905083565b600b6020528060005260406000206000915090508060000160009054906101000a900473ffffffffffffffffffffffffffffffffffffffff16908060010160009054906101000a900473ffffffffffffffffffffffffffffffffffffffff16908060020160009054906101000a900473ffffffffffffffffffffffffffffffffffffffff1690806003018054600181600116156101000203166002900480601f016020809104026020016040519081016040528092919081815260200182805460018160011615610100020316600290048015610e0e5780601f10610de357610100808354040283529160200191610e0e565b820191906000526020600020905b815481529060010190602001808311610df157829003601f168201915b5050505050905084565b600454610e23610aa2565b63ffffffff16018863ffffffff161015610ea5576040517f08c379a000000000000000000000000000000000000000000000000000000000815260040180806020018281038252601e8152602001807f546869732061756374696f6e20697320616c726561647920636c6f736564000081525060200191505060405180910390fd5b610ead611339565b60405180608001604052808773ffffffffffffffffffffffffffffffffffffffff1681526020018673ffffffffffffffffffffffffffffffffffffffff1681526020018573ffffffffffffffffffffffffffffffffffffffff16815260200184848080601f016020809104026020016040519081016040528093929190818152602001838380828437600081840152601f19601f8201169050808301925050505050505081525090506000610f648a838b8b611326565b9050600560009054906101000a900473ffffffffffffffffffffffffffffffffffffffff1673ffffffffffffffffffffffffffffffffffffffff166108fc829081150290604051600060405180830381858888f19350505050158015610fce573d6000803e3d6000fd5b5050505050505050505050565b600454610fe6610aa2565b63ffffffff16018563ffffffff161015611068576040517f08c379a000000000000000000000000000000000000000000000000000000000815260040180806020018281038252601e8152602001807f546869732061756374696f6e20697320616c726561647920636c6f736564000081525060200191505060405180910390fd5b611070611339565b60405180608001604052803373ffffffffffffffffffffffffffffffffffffffff1681526020013373ffffffffffffffffffffffffffffffffffffffff1681526020013373ffffffffffffffffffffffffffffffffffffffff16815260200186868080601f016020809104026020016040519081016040528093929190818152602001838380828437600081840152601f19601f820116905080830192505050505050508152509050600061112787838686611326565b9050600560009054906101000a900473ffffffffffffffffffffffffffffffffffffffff1673ffffffffffffffffffffffffffffffffffffffff166108fc829081150290604051600060405180830381858888f19350505050158015611191573d6000803e3d6000fd5b5050505050505050565b60006002548210156111b057600090506111d8565b6000809054906101000a900463ffffffff1663ffffffff166002548303816111d457fe5b0490505b919050565b60078060000160009054906101000a900473ffffffffffffffffffffffffffffffffffffffff16908060010160009054906101000a900473ffffffffffffffffffffffffffffffffffffffff16908060020160009054906101000a900473ffffffffffffffffffffffffffffffffffffffff1690806003018054600181600116156101000203166002900480601f0160208091040260200160405190810160405280929190818152602001828054600181600116156101000203166002900480156112e95780601f106112be576101008083540402835291602001916112e9565b820191906000526020600020905b8154815290600101906020018083116112cc57829003601f168201915b5050505050905084565b6000600d60008363ffffffff16815260200190815260200160002060020160009054906101000a900460ff169050919050565b6000806000905080915050949350505050565b6040518060800160405280600073ffffffffffffffffffffffffffffffffffffffff168152602001600073ffffffffffffffffffffffffffffffffffffffff168152602001600073ffffffffffffffffffffffffffffffffffffffff16815260200160608152509056fea265627a7a7231582008df0a8356c8d2255b4e44b64e2602698cec2d0e69b78777a346f46f07ef0fd664736f6c634300050f0032",
  "source": "pragma solidity ^0.5.15;\r\n\r\ncontract BurnAuction {\r\n    \r\n\t\r\n\t// discuss if you want to incentivize early bidders for slots using bonus\r\n\t// todo make uint types explicit\r\n\t// discuss need for default Coordinator\r\n\t\t\r\n\t// number of blocks available in slot\r\n\tuint32 public blocksPerSlot;\r\n\t// number of blocks after contract deployment for genesisBlock number\r\n\tuint public delayGenesis;\r\n\t// First block where the first slot begins\r\n    uint public genesisBlock;\r\n\t// Maximum rollup transactions: either off-chain or on-chain transactions\r\n    uint public maxTx;\r\n\t// Min differance between currentslot and auction slots\r\n\tuint public minNextSlots;\r\n\t// Burn Address\r\n    address payable burnAddress;\r\n\t// Minimum bid to enter the auction\r\n\tuint public minBid;\r\n    // Default Coordinator\r\n\t// will have to decide if we want to keep default Coordinator or not\r\n    Coordinator public coDefault;\r\n\t\r\n\t// Coordinator structure\r\n    struct Coordinator {\r\n\t    // address to return Coordinator failed bid amount back\r\n        address payable beneficiaryAddress;\r\n\t\t// Coordinator address having right to submit batch\r\n        address submitBatchAddress;\r\n\t\t//might not need this\r\n\t\t// address to sends funds if bid withdrawn\r\n        address withdrawAddress;\r\n\t\t// Coordinator url \r\n        string url;\r\n    }\r\n\r\n    // bid structure\r\n    struct Bid {\r\n\t    // bid amount = sumtotalFees - targetProfit\r\n        uint amount;\r\n\t\t// used to indicate active auction for slot\r\n        bool initialized;\r\n\t\t// profit per auction slot by Coordinator\r\n        uint targetProfit;\r\n\t    // sum of fees of all transactions included in slot\r\n\t    uint sumtotalFees;\r\n    }\r\n\t\r\n\t// information of slot structure\r\n    struct InfoSlot {\r\n        // current price of slot\r\n        uint slotPrice;\r\n        // current max target profit on slot\r\n\t\tuint maxtargetProfit;\r\n\t\t// Indicates if at least one batch has been submitted to slot\r\n        bool fullFilled;\r\n    }\r\n\t\r\n\t// Mappings\r\n\t// mapping to control winner of slot\r\n    mapping(uint => Coordinator) public slotWinner;\r\n    // mapping to control bid by slot\r\n    mapping(uint => Bid) public slotBid;\r\n    // mapping to control information of slot\r\n    mapping(uint => InfoSlot) public infoSlot;\r\n\t\r\n\t// events\r\n\t/**\r\n     * @dev Event called when an Coordinator beat the current best bid of an ongoing auction\r\n     */\r\n    event currentBestBid(uint32 slot, uint amount, uint sumtotalFees, uint targetProfit, address Coordinator, string url);\r\n    \r\n\t// todo move all governance parameters in Constructor-done\r\n\t/**\r\n     * @dev BurnAuction Constructor\r\n     * Set first block where the first slot begin\r\n     * @param _maxTx maximum transactions\r\n     * @param _burnAddress burner address\r\n\t * @param _blocksPerSlot number of blocks in slot\r\n\t * @param _delayGenesis delay genesisBlock by this\r\n\t * @param _minBid minimum bid for a auction slot\r\n\t * @param _minNextSlots differance between currentslot and auction slot\r\n     */\r\n    constructor(\r\n\t    uint256 _maxTx,\r\n\t    address payable _burnAddress,\r\n\t    uint32 _blocksPerSlot,\r\n\t\tuint _delayGenesis,\r\n\t\tuint _minBid,\r\n\t\tuint _minNextSlots\r\n\t) public {\r\n        genesisBlock = getBlockNumber() + _delayGenesis;\r\n        maxTx = _maxTx;\r\n        burnAddress = _burnAddress;\r\n\t\tblocksPerSlot = _blocksPerSlot;\r\n\t\tdelayGenesis = _delayGenesis;\r\n\t\tminBid = _minBid;\r\n\t\tminNextSlots = _minNextSlots;\t\t\r\n    }\r\n\t\r\n\t// functions\r\n\t//update with natspec comments\r\n\t\r\n\tfunction bid(\r\n\t    uint32 slot,\r\n\t\tCoordinator memory co,\r\n\t\tuint _targetProfit,\r\n\t\tuint _sumtotalFees\r\n\t) internal returns (uint) {\r\n\t    uint burnBid = 0;\r\n\t\treturn burnBid;\r\n\t}\r\n\t\r\n\t//complete them-done\r\n\t\r\n\t//function by which coordinator bids for himself\r\n\tfunction bidBySelf(uint32 _slot, string calldata _url, uint _targetProfit, uint _sumtotalFees) external payable {\r\n\t    require(_slot >= currentSlot() + minNextSlots, 'This auction is already closed');\r\n\t    Coordinator memory co = Coordinator(msg.sender, msg.sender, msg.sender, _url);\r\n\t\tuint burnBid = bid(_slot,co,_targetProfit,_sumtotalFees);\r\n\t\tburnAddress.transfer(burnBid);\r\n\t}\r\n\t\r\n\t//coordinator bids using others address arguments\r\n\tfunction bidForOthers(\r\n\t    uint32 _slot,\r\n\t\tuint _targetProfit,\r\n\t\tuint _sumtotalFees,\r\n\t\taddress payable _beneficiaryAddress,\r\n\t\taddress _submitBatchAddress,\r\n\t\taddress _withdrawAddress,\r\n\t\tstring calldata _url\r\n\t) external payable {\r\n\t    require(_slot >= currentSlot() + minNextSlots, 'This auction is already closed');\r\n\t\tCoordinator memory co = Coordinator(_beneficiaryAddress, _submitBatchAddress, _withdrawAddress, _url);\r\n\t\tuint burnBid = bid(_slot,co,_targetProfit,_sumtotalFees);\r\n\t\tburnAddress.transfer(burnBid);\r\n\t}\r\n\t\r\n\t// function needs to be exposed-done\r\n\t/**\r\n     * @dev Retrieve slot winner\r\n     * @return submitBatchAddress,beneficiaryAddress,Coordinator url,bidamount\r\n     */\r\n\tfunction getWinner(uint _slot) external returns (address, address, string memory, uint) {\r\n\t\tuint256 amount = slotBid[_slot].amount;\r\n        address batchSubmitter = slotWinner[_slot].submitBatchAddress;\r\n        address beneficiary = slotWinner[_slot].beneficiaryAddress;\r\n        string memory url = slotWinner[_slot].url;\r\n        return (batchSubmitter, beneficiary, url, amount);\r\n\t}\r\n\t\r\n\tfunction checkWinner(uint _slot, address _coordinator) external returns (bool) {\r\n\t\taddress batchSubmitter = slotWinner[_slot].submitBatchAddress;\r\n\t\tif(batchSubmitter == _coordinator){\r\n\t\t\treturn true;\r\n\t\t} else {\r\n\t\t\treturn false;\r\n\t\t}\r\n\t}\r\n\t\r\n\t//helper functions\r\n\t/**\r\n     * @dev Retrieve block number\r\n     * @return current block number\r\n     */\r\n    function getBlockNumber() public view returns (uint) {\r\n        return block.number;\r\n    }\r\n\r\n    /**\r\n     * @dev Calculate slot from block number\r\n     * @param numBlock block number\r\n     * @return slot number\r\n     */\r\n    function block2slot(uint numBlock) public view returns (uint32) {\r\n        if (numBlock < genesisBlock) return 0;\r\n        return uint32((numBlock - genesisBlock) / (blocksPerSlot));\r\n    }\r\n\t\r\n\t/**\r\n     * @dev Retrieve current slot\r\n     * @return slot number\r\n     */\r\n    function currentSlot() public view returns (uint32) {\r\n        return block2slot(getBlockNumber());\r\n    }\r\n\r\n    /**\r\n     * @dev Retrieve the first block number for a given slot\r\n     * @param slot slot number\r\n     * @return block number\r\n     */\r\n    function getBlockBySlot(uint32 slot) public view returns (uint) {\r\n        return (genesisBlock + slot*blocksPerSlot);\r\n    }\r\n\t\r\n\tfunction fullFilledSlot(uint32 slot) public view returns (bool) {\r\n        return infoSlot[slot].fullFilled;\r\n    }\r\n}",
  "sourcePath": "C:\\Users\\lazypuppet\\ethereum\\snaketh4x0r\\BurnAuctionProject\\contracts\\BurnAuction.sol",
  "compiler": {
    "name": "solc",
    "version": "0.5.15+commit.6a57276f.Emscripten.clang"
  },
  "schemaVersion": "3.1.0",
  "updatedAt": "2020-08-12T18:53:15.388Z",
  "devdoc": {
    "methods": {
      "block2slot(uint256)": {
        "details": "Calculate slot from block number",
        "params": {
          "numBlock": "block number"
        },
        "return": "slot number"
      },
      "constructor": {
        "details": "BurnAuction Constructor Set first block where the first slot begin",
        "params": {
          "_blocksPerSlot": "number of blocks in slot",
          "_burnAddress": "burner address",
          "_delayGenesis": "delay genesisBlock by this",
          "_maxTx": "maximum transactions",
          "_minBid": "minimum bid for a auction slot",
          "_minNextSlots": "differance between currentslot and auction slot"
        }
      },
      "currentSlot()": {
        "details": "Retrieve current slot",
        "return": "slot number"
      },
      "getBlockBySlot(uint32)": {
        "details": "Retrieve the first block number for a given slot",
        "params": {
          "slot": "slot number"
        },
        "return": "block number"
      },
      "getBlockNumber()": {
        "details": "Retrieve block number",
        "return": "current block number"
      },
      "getWinner(uint256)": {
        "details": "Retrieve slot winner",
        "return": "submitBatchAddress,beneficiaryAddress,Coordinator url,bidamount"
      }
    }
  },
  "userdoc": {
    "methods": {}
  }
}