{
  "contractName": "BurnAuction",
  "abi": [
    {
      "inputs": [
        {
          "internalType": "uint256",
          "name": "_maxTx",
          "type": "uint256"
        },
        {
          "internalType": "address payable",
          "name": "_burnAddress",
          "type": "address"
        },
        {
          "internalType": "uint32",
          "name": "_blocksPerSlot",
          "type": "uint32"
        },
        {
          "internalType": "uint256",
          "name": "_delayGenesis",
          "type": "uint256"
        },
        {
          "internalType": "uint256",
          "name": "_minBid",
          "type": "uint256"
        },
        {
          "internalType": "uint256",
          "name": "_minNextSlots",
          "type": "uint256"
        },
        {
          "internalType": "uint256",
          "name": "_minNextbid",
          "type": "uint256"
        },
        {
          "internalType": "address payable",
          "name": "coReturnAddress",
          "type": "address"
        },
        {
          "internalType": "address",
          "name": "coSubmitBatchAddress",
          "type": "address"
        },
        {
          "internalType": "string",
          "name": "coUrl",
          "type": "string"
        }
      ],
      "payable": false,
      "stateMutability": "nonpayable",
      "type": "constructor"
    },
    {
      "anonymous": false,
      "inputs": [
        {
          "indexed": false,
          "internalType": "uint32",
          "name": "slot",
          "type": "uint32"
        },
        {
          "indexed": false,
          "internalType": "uint256",
          "name": "amount",
          "type": "uint256"
        },
        {
          "indexed": false,
          "internalType": "address",
          "name": "Coordinator",
          "type": "address"
        },
        {
          "indexed": false,
          "internalType": "string",
          "name": "url",
          "type": "string"
        }
      ],
      "name": "currentBestBid",
      "type": "event"
    },
    {
      "constant": true,
      "inputs": [],
      "name": "blocksPerSlot",
      "outputs": [
        {
          "internalType": "uint32",
          "name": "",
          "type": "uint32"
        }
      ],
      "payable": false,
      "stateMutability": "view",
      "type": "function"
    },
    {
      "constant": true,
      "inputs": [],
      "name": "coDefault",
      "outputs": [
        {
          "internalType": "address payable",
          "name": "returnAddress",
          "type": "address"
        },
        {
          "internalType": "address",
          "name": "submitBatchAddress",
          "type": "address"
        },
        {
          "internalType": "string",
          "name": "url",
          "type": "string"
        }
      ],
      "payable": false,
      "stateMutability": "view",
      "type": "function"
    },
    {
      "constant": true,
      "inputs": [],
      "name": "delayGenesis",
      "outputs": [
        {
          "internalType": "uint256",
          "name": "",
          "type": "uint256"
        }
      ],
      "payable": false,
      "stateMutability": "view",
      "type": "function"
    },
    {
      "constant": true,
      "inputs": [],
      "name": "genesisBlock",
      "outputs": [
        {
          "internalType": "uint256",
          "name": "",
          "type": "uint256"
        }
      ],
      "payable": false,
      "stateMutability": "view",
      "type": "function"
    },
    {
      "constant": true,
      "inputs": [],
      "name": "maxTx",
      "outputs": [
        {
          "internalType": "uint256",
          "name": "",
          "type": "uint256"
        }
      ],
      "payable": false,
      "stateMutability": "view",
      "type": "function"
    },
    {
      "constant": true,
      "inputs": [],
      "name": "minBid",
      "outputs": [
        {
          "internalType": "uint256",
          "name": "",
          "type": "uint256"
        }
      ],
      "payable": false,
      "stateMutability": "view",
      "type": "function"
    },
    {
      "constant": true,
      "inputs": [],
      "name": "minNextSlots",
      "outputs": [
        {
          "internalType": "uint256",
          "name": "",
          "type": "uint256"
        }
      ],
      "payable": false,
      "stateMutability": "view",
      "type": "function"
    },
    {
      "constant": true,
      "inputs": [],
      "name": "minNextbid",
      "outputs": [
        {
          "internalType": "uint256",
          "name": "",
          "type": "uint256"
        }
      ],
      "payable": false,
      "stateMutability": "view",
      "type": "function"
    },
    {
      "constant": true,
      "inputs": [
        {
          "internalType": "uint256",
          "name": "",
          "type": "uint256"
        }
      ],
      "name": "slotBid",
      "outputs": [
        {
          "internalType": "uint256",
          "name": "amount",
          "type": "uint256"
        },
        {
          "internalType": "bool",
          "name": "initialized",
          "type": "bool"
        }
      ],
      "payable": false,
      "stateMutability": "view",
      "type": "function"
    },
    {
      "constant": true,
      "inputs": [
        {
          "internalType": "uint256",
          "name": "",
          "type": "uint256"
        }
      ],
      "name": "slotWinner",
      "outputs": [
        {
          "internalType": "address payable",
          "name": "returnAddress",
          "type": "address"
        },
        {
          "internalType": "address",
          "name": "submitBatchAddress",
          "type": "address"
        },
        {
          "internalType": "string",
          "name": "url",
          "type": "string"
        }
      ],
      "payable": false,
      "stateMutability": "view",
      "type": "function"
    },
    {
      "constant": false,
      "inputs": [
        {
          "internalType": "uint32",
          "name": "_slot",
          "type": "uint32"
        },
        {
          "internalType": "string",
          "name": "_url",
          "type": "string"
        }
      ],
      "name": "bidBySelf",
      "outputs": [],
      "payable": true,
      "stateMutability": "payable",
      "type": "function"
    },
    {
      "constant": false,
      "inputs": [
        {
          "internalType": "uint32",
          "name": "_slot",
          "type": "uint32"
        },
        {
          "internalType": "address payable",
          "name": "_returnAddress",
          "type": "address"
        },
        {
          "internalType": "address",
          "name": "_submitBatchAddress",
          "type": "address"
        },
        {
          "internalType": "string",
          "name": "_url",
          "type": "string"
        }
      ],
      "name": "bidForOthers",
      "outputs": [],
      "payable": true,
      "stateMutability": "payable",
      "type": "function"
    },
    {
      "constant": true,
      "inputs": [],
      "name": "getCurrentWinner",
      "outputs": [
        {
          "internalType": "address",
          "name": "",
          "type": "address"
        },
        {
          "internalType": "address",
          "name": "",
          "type": "address"
        },
        {
          "internalType": "string",
          "name": "",
          "type": "string"
        },
        {
          "internalType": "uint256",
          "name": "",
          "type": "uint256"
        }
      ],
      "payable": false,
      "stateMutability": "view",
      "type": "function"
    },
    {
      "constant": true,
      "inputs": [
        {
          "internalType": "uint256",
          "name": "_slot",
          "type": "uint256"
        },
        {
          "internalType": "address",
          "name": "_winner",
          "type": "address"
        }
      ],
      "name": "checkWinner",
      "outputs": [
        {
          "internalType": "bool",
          "name": "",
          "type": "bool"
        }
      ],
      "payable": false,
      "stateMutability": "view",
      "type": "function"
    },
    {
      "constant": true,
      "inputs": [
        {
          "internalType": "uint32",
          "name": "_slot",
          "type": "uint32"
        }
      ],
      "name": "getWinner",
      "outputs": [
        {
          "internalType": "address",
          "name": "",
          "type": "address"
        },
        {
          "internalType": "address",
          "name": "",
          "type": "address"
        },
        {
          "internalType": "string",
          "name": "",
          "type": "string"
        },
        {
          "internalType": "uint256",
          "name": "",
          "type": "uint256"
        }
      ],
      "payable": false,
      "stateMutability": "view",
      "type": "function"
    },
    {
      "constant": true,
      "inputs": [],
      "name": "getBlockNumber",
      "outputs": [
        {
          "internalType": "uint256",
          "name": "",
          "type": "uint256"
        }
      ],
      "payable": false,
      "stateMutability": "view",
      "type": "function"
    },
    {
      "constant": true,
      "inputs": [
        {
          "internalType": "uint256",
          "name": "numBlock",
          "type": "uint256"
        }
      ],
      "name": "block2slot",
      "outputs": [
        {
          "internalType": "uint32",
          "name": "",
          "type": "uint32"
        }
      ],
      "payable": false,
      "stateMutability": "view",
      "type": "function"
    },
    {
      "constant": true,
      "inputs": [],
      "name": "currentSlot",
      "outputs": [
        {
          "internalType": "uint32",
          "name": "",
          "type": "uint32"
        }
      ],
      "payable": false,
      "stateMutability": "view",
      "type": "function"
    },
    {
      "constant": true,
      "inputs": [
        {
          "internalType": "uint32",
          "name": "slot",
          "type": "uint32"
        }
      ],
      "name": "getBlockBySlot",
      "outputs": [
        {
          "internalType": "uint256",
          "name": "",
          "type": "uint256"
        }
      ],
      "payable": false,
      "stateMutability": "view",
      "type": "function"
    }
  ],
  "bytecode": "0x60806040523480156200001157600080fd5b50604051620022043803806200220483398181016040526101408110156200003857600080fd5b8101908080519060200190929190805190602001909291908051906020019092919080519060200190929190805190602001909291908051906020019092919080519060200190929190805190602001909291908051906020019092919080516040519392919084640100000000821115620000b357600080fd5b83820191506020820185811115620000ca57600080fd5b8251866001820283011164010000000082111715620000e857600080fd5b8083526020830192505050908051906020019080838360005b838110156200011e57808201518184015260208101905062000101565b50505050905090810190601f1680156200014c5780820380516001836020036101000a031916815260200191505b50604052505050866200016d62000301640100000000026401000000009004565b016002819055508960038190555088600560006101000a81548173ffffffffffffffffffffffffffffffffffffffff021916908373ffffffffffffffffffffffffffffffffffffffff160217905550876000806101000a81548163ffffffff021916908363ffffffff1602179055508660018190555085600681905550846004819055508360078190555060405180606001604052808473ffffffffffffffffffffffffffffffffffffffff1681526020018373ffffffffffffffffffffffffffffffffffffffff16815260200182815250600860008201518160000160006101000a81548173ffffffffffffffffffffffffffffffffffffffff021916908373ffffffffffffffffffffffffffffffffffffffff16021790555060208201518160010160006101000a81548173ffffffffffffffffffffffffffffffffffffffff021916908373ffffffffffffffffffffffffffffffffffffffff1602179055506040820151816002019080519060200190620002ed92919062000309565b5090505050505050505050505050620003b8565b600043905090565b828054600181600116156101000203166002900490600052602060002090601f016020900481019282601f106200034c57805160ff19168380011785556200037d565b828001600101855582156200037d579182015b828111156200037c5782518255916020019190600101906200035f565b5b5090506200038c919062000390565b5090565b620003b591905b80821115620003b157600081600090555060010162000397565b5090565b90565b611e3c80620003c86000396000f3fe608060405260043610610131576000357c010000000000000000000000000000000000000000000000000000000090048063477398aa116100bd57806375986e451161008157806375986e45146106b55780638f42883f146106e057806397410319146107fa578063a87a2ead14610883578063b859605a146108de57610131565b8063477398aa146104ac5780634cdc9c63146105d35780635938e4f9146105fe578063654a2bbb146106355780637437681e1461068a57610131565b80633359632e116101045780633359632e1461039a5780633a117e55146103d15780633e109a19146103fc578063429e95b41461042757806342cbb15c1461048157610131565b80631251e3a514610136578063227b03541461016157806329f4969b146101d4578063329bfc331461029d575b600080fd5b34801561014257600080fd5b5061014b6109d4565b6040518082815260200191505060405180910390f35b34801561016d57600080fd5b506101ba6004803603604081101561018457600080fd5b8101908080359060200190929190803573ffffffffffffffffffffffffffffffffffffffff1690602001909291905050506109da565b604051808215151515815260200191505060405180910390f35b61029b600480360360808110156101ea57600080fd5b81019080803563ffffffff169060200190929190803573ffffffffffffffffffffffffffffffffffffffff169060200190929190803573ffffffffffffffffffffffffffffffffffffffff1690602001909291908035906020019064010000000081111561025757600080fd5b82018360208201111561026957600080fd5b8035906020019184600183028401116401000000008311171561028b57600080fd5b9091929391929390505050610ac3565b005b3480156102a957600080fd5b506102b2610c66565b604051808573ffffffffffffffffffffffffffffffffffffffff1673ffffffffffffffffffffffffffffffffffffffff1681526020018473ffffffffffffffffffffffffffffffffffffffff1673ffffffffffffffffffffffffffffffffffffffff16815260200180602001838152602001828103825284818151815260200191508051906020019080838360005b8381101561035c578082015181840152602081019050610341565b50505050905090810190601f1680156103895780820380516001836020036101000a031916815260200191505b509550505050505060405180910390f35b3480156103a657600080fd5b506103af610de5565b604051808263ffffffff1663ffffffff16815260200191505060405180910390f35b3480156103dd57600080fd5b506103e6610dfc565b6040518082815260200191505060405180910390f35b34801561040857600080fd5b50610411610e02565b6040518082815260200191505060405180910390f35b34801561043357600080fd5b506104606004803603602081101561044a57600080fd5b8101908080359060200190929190505050610e08565b60405180838152602001821515151581526020019250505060405180910390f35b34801561048d57600080fd5b50610496610e39565b6040518082815260200191505060405180910390f35b3480156104b857600080fd5b506104eb600480360360208110156104cf57600080fd5b81019080803563ffffffff169060200190929190505050610e41565b604051808573ffffffffffffffffffffffffffffffffffffffff1673ffffffffffffffffffffffffffffffffffffffff1681526020018473ffffffffffffffffffffffffffffffffffffffff1673ffffffffffffffffffffffffffffffffffffffff16815260200180602001838152602001828103825284818151815260200191508051906020019080838360005b8381101561059557808201518184015260208101905061057a565b50505050905090810190601f1680156105c25780820380516001836020036101000a031916815260200191505b509550505050505060405180910390f35b3480156105df57600080fd5b506105e8611134565b6040518082815260200191505060405180910390f35b34801561060a57600080fd5b5061061361113a565b604051808263ffffffff1663ffffffff16815260200191505060405180910390f35b34801561064157600080fd5b506106746004803603602081101561065857600080fd5b81019080803563ffffffff16906020019092919050505061114f565b6040518082815260200191505060405180910390f35b34801561069657600080fd5b5061069f611176565b6040518082815260200191505060405180910390f35b3480156106c157600080fd5b506106ca61117c565b6040518082815260200191505060405180910390f35b3480156106ec57600080fd5b506107196004803603602081101561070357600080fd5b8101908080359060200190929190505050611182565b604051808473ffffffffffffffffffffffffffffffffffffffff1673ffffffffffffffffffffffffffffffffffffffff1681526020018373ffffffffffffffffffffffffffffffffffffffff1673ffffffffffffffffffffffffffffffffffffffff16815260200180602001828103825283818151815260200191508051906020019080838360005b838110156107bd5780820151818401526020810190506107a2565b50505050905090810190601f1680156107ea5780820380516001836020036101000a031916815260200191505b5094505050505060405180910390f35b6108816004803603604081101561081057600080fd5b81019080803563ffffffff1690602001909291908035906020019064010000000081111561083d57600080fd5b82018360208201111561084f57600080fd5b8035906020019184600183028401116401000000008311171561087157600080fd5b9091929391929390505050611284565b005b34801561088f57600080fd5b506108bc600480360360208110156108a657600080fd5b8101908080359060200190929190505050611425565b604051808263ffffffff1663ffffffff16815260200191505060405180910390f35b3480156108ea57600080fd5b506108f3611467565b604051808473ffffffffffffffffffffffffffffffffffffffff1673ffffffffffffffffffffffffffffffffffffffff1681526020018373ffffffffffffffffffffffffffffffffffffffff1673ffffffffffffffffffffffffffffffffffffffff16815260200180602001828103825283818151815260200191508051906020019080838360005b8381101561099757808201518184015260208101905061097c565b50505050905090810190601f1680156109c45780820380516001836020036101000a031916815260200191505b5094505050505060405180910390f35b60075481565b60008173ffffffffffffffffffffffffffffffffffffffff16600860010160009054906101000a900473ffffffffffffffffffffffffffffffffffffffff1673ffffffffffffffffffffffffffffffffffffffff161415610a3e5760019050610abd565b6000600b600085815260200190815260200160002060010160009054906101000a900473ffffffffffffffffffffffffffffffffffffffff1690508273ffffffffffffffffffffffffffffffffffffffff168173ffffffffffffffffffffffffffffffffffffffff161415610ab7576001915050610abd565b60009150505b92915050565b600454610ace610de5565b63ffffffff16018563ffffffff161015610b50576040517f08c379a000000000000000000000000000000000000000000000000000000000815260040180806020018281038252601e8152602001807f546869732061756374696f6e20697320616c726561647920636c6f736564000081525060200191505060405180910390fd5b610b58611ccd565b60405180606001604052808673ffffffffffffffffffffffffffffffffffffffff1681526020018573ffffffffffffffffffffffffffffffffffffffff16815260200184848080601f016020809104026020016040519081016040528093929190818152602001838380828437600081840152601f19601f8201169050808301925050505050505081525090506000610bf2878334611557565b9050600560009054906101000a900473ffffffffffffffffffffffffffffffffffffffff1673ffffffffffffffffffffffffffffffffffffffff166108fc829081150290604051600060405180830381858888f19350505050158015610c5c573d6000803e3d6000fd5b5050505050505050565b6000806060600080600060606000610c84610c7f610de5565b610e41565b80945081955082965083975050505050600073ffffffffffffffffffffffffffffffffffffffff168473ffffffffffffffffffffffffffffffffffffffff1614610cdd5783838383975097509750975050505050610ddf565b600860010160009054906101000a900473ffffffffffffffffffffffffffffffffffffffff16600860000160009054906101000a900473ffffffffffffffffffffffffffffffffffffffff1660086002016000829250818054600181600116156101000203166002900480601f016020809104026020016040519081016040528092919081815260200182805460018160011615610100020316600290048015610dc85780601f10610d9d57610100808354040283529160200191610dc8565b820191906000526020600020905b815481529060010190602001808311610dab57829003601f168201915b505050505091508090509750975097509750505050505b90919293565b6000610df7610df2610e39565b611425565b905090565b60015481565b60065481565b600c6020528060005260406000206000915090508060000154908060010160009054906101000a900460ff16905082565b600043905090565b6000806060600080600b60008763ffffffff16815260200190815260200160002060010160009054906101000a900473ffffffffffffffffffffffffffffffffffffffff169050600073ffffffffffffffffffffffffffffffffffffffff168173ffffffffffffffffffffffffffffffffffffffff161461102e576000600b60008863ffffffff16815260200190815260200160002060010160009054906101000a900473ffffffffffffffffffffffffffffffffffffffff1690506000600b60008963ffffffff16815260200190815260200160002060000160009054906101000a900473ffffffffffffffffffffffffffffffffffffffff1690506060600b60008a63ffffffff1681526020019081526020016000206002018054600181600116156101000203166002900480601f016020809104026020016040519081016040528092919081815260200182805460018160011615610100020316600290048015610ff05780601f10610fc557610100808354040283529160200191610ff0565b820191906000526020600020905b815481529060010190602001808311610fd357829003601f168201915b505050505090506000600c60008b63ffffffff168152602001908152602001600020600001549050838383839850985098509850505050505061112d565b600860010160009054906101000a900473ffffffffffffffffffffffffffffffffffffffff16600860000160009054906101000a900473ffffffffffffffffffffffffffffffffffffffff1660086002016000829250818054600181600116156101000203166002900480601f0160208091040260200160405190810160405280929190818152602001828054600181600116156101000203166002900480156111195780601f106110ee57610100808354040283529160200191611119565b820191906000526020600020905b8154815290600101906020018083116110fc57829003601f168201915b505050505091508090509450945094509450505b9193509193565b60025481565b6000809054906101000a900463ffffffff1681565b60008060009054906101000a900463ffffffff16820263ffffffff16600254019050919050565b60035481565b60045481565b600b6020528060005260406000206000915090508060000160009054906101000a900473ffffffffffffffffffffffffffffffffffffffff16908060010160009054906101000a900473ffffffffffffffffffffffffffffffffffffffff1690806002018054600181600116156101000203166002900480601f01602080910402602001604051908101604052809291908181526020018280546001816001161561010002031660029004801561127a5780601f1061124f5761010080835404028352916020019161127a565b820191906000526020600020905b81548152906001019060200180831161125d57829003601f168201915b5050505050905083565b60045461128f610de5565b63ffffffff16018363ffffffff161015611311576040517f08c379a000000000000000000000000000000000000000000000000000000000815260040180806020018281038252601e8152602001807f546869732061756374696f6e20697320616c726561647920636c6f736564000081525060200191505060405180910390fd5b611319611ccd565b60405180606001604052803373ffffffffffffffffffffffffffffffffffffffff1681526020013373ffffffffffffffffffffffffffffffffffffffff16815260200184848080601f016020809104026020016040519081016040528093929190818152602001838380828437600081840152601f19601f82011690508083019250505050505050815250905060006113b3858334611557565b9050600560009054906101000a900473ffffffffffffffffffffffffffffffffffffffff1673ffffffffffffffffffffffffffffffffffffffff166108fc829081150290604051600060405180830381858888f1935050505015801561141d573d6000803e3d6000fd5b505050505050565b600060025482101561143a5760009050611462565b6000809054906101000a900463ffffffff1663ffffffff1660025483038161145e57fe5b0490505b919050565b60088060000160009054906101000a900473ffffffffffffffffffffffffffffffffffffffff16908060010160009054906101000a900473ffffffffffffffffffffffffffffffffffffffff1690806002018054600181600116156101000203166002900480601f01602080910402602001604051908101604052809291908181526020018280546001816001161561010002031660029004801561154d5780601f106115225761010080835404028352916020019161154d565b820191906000526020600020905b81548152906001019060200180831161153057829003601f168201915b5050505050905083565b600080600090506000839050600c60008763ffffffff16815260200190815260200160002060010160009054906101000a900460ff16156116ef576000600c60008863ffffffff16815260200190815260200160002060000154905060006115ef6115e060646115d2600754866119a590919063ffffffff16565b611a2b90919063ffffffff16565b83611a7590919063ffffffff16565b90508083101561164a576040517f08c379a0000000000000000000000000000000000000000000000000000000008152600401808060200182810382526027815260200180611de16027913960400191505060405180910390fd5b6000600b60008a63ffffffff16815260200190815260200160002060000160009054906101000a900473ffffffffffffffffffffffffffffffffffffffff1690508073ffffffffffffffffffffffffffffffffffffffff166108fc849081150290604051600060405180830381858888f193505050501580156116d1573d6000803e3d6000fd5b506116e58385611afd90919063ffffffff16565b94505050506117a0565b600654811015611767576040517f08c379a000000000000000000000000000000000000000000000000000000000815260040180806020018281038252601f8152602001807f626964206e6f7420656e6f756768207468616e206d696e696d756d206269640081525060200191505060405180910390fd5b6001600c60008863ffffffff16815260200190815260200160002060010160006101000a81548160ff0219169083151502179055508091505b84600b60008863ffffffff16815260200190815260200160002060008201518160000160006101000a81548173ffffffffffffffffffffffffffffffffffffffff021916908373ffffffffffffffffffffffffffffffffffffffff16021790555060208201518160010160006101000a81548173ffffffffffffffffffffffffffffffffffffffff021916908373ffffffffffffffffffffffffffffffffffffffff1602179055506040820151816002019080519060200190611864929190611d1a565b5090505080600c60008863ffffffff168152602001908152602001600020600001819055507fc666313c586c46eba543fdc303bc57e4d34139795a0868cf4421f3f7c492c2fd86600c60008963ffffffff1681526020019081526020016000206000015487600001518860400151604051808563ffffffff1663ffffffff1681526020018481526020018373ffffffffffffffffffffffffffffffffffffffff1673ffffffffffffffffffffffffffffffffffffffff16815260200180602001828103825283818151815260200191508051906020019080838360005b8381101561195c578082015181840152602081019050611941565b50505050905090810190601f1680156119895780820380516001836020036101000a031916815260200191505b509550505050505060405180910390a181925050509392505050565b6000808314156119b85760009050611a25565b60008284029050828482816119c957fe5b0414611a20576040517f08c379a0000000000000000000000000000000000000000000000000000000008152600401808060200182810382526021815260200180611dc06021913960400191505060405180910390fd5b809150505b92915050565b6000611a6d83836040518060400160405280601a81526020017f536166654d6174683a206469766973696f6e206279207a65726f000000000000815250611b47565b905092915050565b600080828401905083811015611af3576040517f08c379a000000000000000000000000000000000000000000000000000000000815260040180806020018281038252601b8152602001807f536166654d6174683a206164646974696f6e206f766572666c6f77000000000081525060200191505060405180910390fd5b8091505092915050565b6000611b3f83836040518060400160405280601e81526020017f536166654d6174683a207375627472616374696f6e206f766572666c6f770000815250611c0d565b905092915050565b60008083118290611bf3576040517f08c379a00000000000000000000000000000000000000000000000000000000081526004018080602001828103825283818151815260200191508051906020019080838360005b83811015611bb8578082015181840152602081019050611b9d565b50505050905090810190601f168015611be55780820380516001836020036101000a031916815260200191505b509250505060405180910390fd5b506000838581611bff57fe5b049050809150509392505050565b6000838311158290611cba576040517f08c379a00000000000000000000000000000000000000000000000000000000081526004018080602001828103825283818151815260200191508051906020019080838360005b83811015611c7f578082015181840152602081019050611c64565b50505050905090810190601f168015611cac5780820380516001836020036101000a031916815260200191505b509250505060405180910390fd5b5060008385039050809150509392505050565b6040518060600160405280600073ffffffffffffffffffffffffffffffffffffffff168152602001600073ffffffffffffffffffffffffffffffffffffffff168152602001606081525090565b828054600181600116156101000203166002900490600052602060002090601f016020900481019282601f10611d5b57805160ff1916838001178555611d89565b82800160010185558215611d89579182015b82811115611d88578251825591602001919060010190611d6d565b5b509050611d969190611d9a565b5090565b611dbc91905b80821115611db8576000816000905550600101611da0565b5090565b9056fe536166654d6174683a206d756c7469706c69636174696f6e206f766572666c6f77626964206e6f7420656e6f75676820746f206f75746269642063757272656e7420626964646572a265627a7a7231582038609340974d412fb03252d716de0604b415124957baa644693a1f5a80a69d3264736f6c634300050f0032",
  "source": "pragma solidity ^0.5.15;\r\n\r\nimport {SafeMath} from \"@openzeppelin/contracts/math/SafeMath.sol\";\r\n\r\ncontract BurnAuction {\r\n    using SafeMath for uint256;\r\n\r\n    // number of blocks available in slot\r\n    uint32 public blocksPerSlot;\r\n    // number of blocks after contract deployment for genesisBlock number\r\n    uint256 public delayGenesis;\r\n    // First block where the first slot begins\r\n    uint256 public genesisBlock;\r\n    // Maximum rollup transactions: either off-chain or on-chain transactions\r\n    uint256 public maxTx;\r\n    // Min differance between currentslot and auction slots\r\n    uint256 public minNextSlots;\r\n    // Burn Address\r\n    address payable burnAddress;\r\n    // Minimum bid to enter the auction\r\n    uint256 public minBid;\r\n    // Min next bid percentage\r\n    uint256 public minNextbid;\r\n    // Default Coordinator\r\n    Coordinator public coDefault;\r\n\r\n    // Coordinator structure\r\n    struct Coordinator {\r\n        // address to return unsuccessful bid funds back\r\n        address payable returnAddress;\r\n        // Coordinator address having right to submit batch\r\n        address submitBatchAddress;\r\n        // Coordinator url\r\n        string url;\r\n    }\r\n\r\n    // bid structure\r\n    struct Bid {\r\n        // bid amount(onchain) = sumtotalFees + targetProfit(offchain)\r\n        uint256 amount;\r\n        // used to indicate active auction for slot\r\n        bool initialized;\r\n    }\r\n\r\n    // mapping to control winner of slot\r\n    mapping(uint256 => Coordinator) public slotWinner;\r\n    // mapping to control bid by slot\r\n    mapping(uint256 => Bid) public slotBid;\r\n\r\n    /**\r\n     * @dev Event called when an Coordinator beat the current best bid of an ongoing auction\r\n     */\r\n    event currentBestBid(\r\n        uint32 slot,\r\n        uint256 amount,\r\n        address Coordinator,\r\n        string url\r\n    );\r\n\r\n    /**\r\n     * @dev BurnAuction Constructor\r\n     * Set first block where the first slot begin\r\n     * @param _maxTx maximum transactions\r\n     * @param _burnAddress burner address\r\n     * @param _blocksPerSlot number of blocks in slot\r\n     * @param _delayGenesis delay genesisBlock by this\r\n     * @param _minBid minimum bid for a auction slot\r\n     * @param _minNextSlots differance between currentslot and auction slot\r\n     */\r\n    constructor(\r\n        uint256 _maxTx,\r\n        address payable _burnAddress,\r\n        uint32 _blocksPerSlot,\r\n        uint256 _delayGenesis,\r\n        uint256 _minBid,\r\n        uint256 _minNextSlots,\r\n        uint256 _minNextbid,\r\n        address payable coReturnAddress,\r\n        address coSubmitBatchAddress,\r\n        string memory coUrl\r\n    ) public {\r\n        genesisBlock = getBlockNumber() + _delayGenesis;\r\n        maxTx = _maxTx;\r\n        burnAddress = _burnAddress;\r\n        blocksPerSlot = _blocksPerSlot;\r\n        delayGenesis = _delayGenesis;\r\n        minBid = _minBid;\r\n        minNextSlots = _minNextSlots;\r\n        minNextbid = _minNextbid;\r\n        coDefault = Coordinator(coReturnAddress, coSubmitBatchAddress, coUrl);\r\n    }\r\n\r\n    /**\r\n     * @dev Retrieve ether amount to be burned\r\n     * @param slot slot number\r\n     * @param co coordinator instance\r\n     * @param _value amount of ether sent\r\n     * @return  burn amount\r\n     */\r\n    function bid(\r\n        uint32 slot,\r\n        Coordinator memory co,\r\n        uint256 _value\r\n    ) internal returns (uint256) {\r\n        uint256 burnBid = 0;\r\n        uint256 value = _value;\r\n        if (slotBid[slot].initialized) {\r\n            uint256 previousBid = slotBid[slot].amount;\r\n            uint256 nextBid = previousBid.add(\r\n                (previousBid.mul(minNextbid)).div(100)\r\n            );\r\n            require(\r\n                value >= nextBid,\r\n                \"bid not enough to outbid current bidder\"\r\n            );\r\n            // refund previous bidder\r\n            address payable previousBidder = slotWinner[slot].returnAddress;\r\n            previousBidder.transfer(previousBid);\r\n            // update burn amount\r\n            burnBid = value.sub(previousBid);\r\n        } else {\r\n            // value should be greater than or equal to minBid\r\n            require(value >= minBid, \"bid not enough than minimum bid\");\r\n            slotBid[slot].initialized = true;\r\n            burnBid = value;\r\n        }\r\n        // update slot winner\r\n        slotWinner[slot] = co;\r\n        // update slot price\r\n        slotBid[slot].amount = value;\r\n        // emit event\r\n        emit currentBestBid(\r\n            slot,\r\n            slotBid[slot].amount,\r\n            co.returnAddress,\r\n            co.url\r\n        );\r\n        return burnBid;\r\n    }\r\n\r\n    /**\r\n     * @dev bid for self\r\n     * @param _slot slot number\r\n     * @param _url Coordinator url\r\n     */\r\n    function bidBySelf(uint32 _slot, string calldata _url) external payable {\r\n        require(\r\n            _slot >= currentSlot() + minNextSlots,\r\n            \"This auction is already closed\"\r\n        );\r\n        Coordinator memory co = Coordinator(msg.sender, msg.sender, _url);\r\n        uint256 burnBid = bid(_slot, co, msg.value);\r\n        burnAddress.transfer(burnBid);\r\n    }\r\n\r\n    /**\r\n     * @dev bid for others using different address arguments\r\n     * @param _slot slot number\r\n     * @param _returnAddress address to return funds\r\n     * @param _submitBatchAddress address to submit batch from\r\n     * @param _url Coordinator url\r\n     */\r\n    function bidForOthers(\r\n        uint32 _slot,\r\n        address payable _returnAddress,\r\n        address _submitBatchAddress,\r\n        string calldata _url\r\n    ) external payable {\r\n        require(\r\n            _slot >= currentSlot() + minNextSlots,\r\n            \"This auction is already closed\"\r\n        );\r\n        Coordinator memory co = Coordinator(\r\n            _returnAddress,\r\n            _submitBatchAddress,\r\n            _url\r\n        );\r\n        uint256 burnBid = bid(_slot, co, msg.value);\r\n        burnAddress.transfer(burnBid);\r\n    }\r\n\r\n    /**\r\n     * @dev Retrieve the current slot winner address\r\n     * @return submitBatchAddress,returnAddress,Coordinator url,bidprice\r\n     */\r\n    function getCurrentWinner()\r\n        external\r\n        view\r\n        returns (\r\n            address,\r\n            address,\r\n            string memory,\r\n            uint256\r\n        )\r\n    {\r\n        address winner;\r\n        address beneficiary;\r\n        string memory url;\r\n        uint256 amount;\r\n\r\n        (winner, beneficiary, url, amount) = getWinner(currentSlot());\r\n\r\n        if (winner != address(0x00)) {\r\n            return (winner, beneficiary, url, amount);\r\n        } else {\r\n            return (\r\n                coDefault.submitBatchAddress,\r\n                coDefault.returnAddress,\r\n                coDefault.url,\r\n                0\r\n            );\r\n        }\r\n    }\r\n\r\n    /**\r\n     * @dev check if given address winner of slot or not\r\n     * @param _slot slot number\r\n     * @param _winner winer address to be checked\r\n     * @return bool\r\n     */\r\n    function checkWinner(uint256 _slot, address _winner)\r\n        external\r\n        view\r\n        returns (bool)\r\n    {\r\n        if (coDefault.submitBatchAddress == _winner) return true;\r\n        address coordinator = slotWinner[_slot].submitBatchAddress;\r\n        if (coordinator == _winner) {\r\n            return true;\r\n        } else {\r\n            return false;\r\n        }\r\n    }\r\n\r\n    /**\r\n     * @dev Retrieve slot winner\r\n     * @param _slot slot number\r\n     * @return submitBatchAddress,returnAddress,Coordinator url,bidprice\r\n     */\r\n    function getWinner(uint32 _slot)\r\n        public\r\n        view\r\n        returns (\r\n            address,\r\n            address,\r\n            string memory,\r\n            uint256\r\n        )\r\n    {\r\n        address batchSubmitter = slotWinner[_slot].submitBatchAddress;\r\n        if (batchSubmitter != address(0x00)) {\r\n            address winner = slotWinner[_slot].submitBatchAddress;\r\n            address beneficiary = slotWinner[_slot].returnAddress;\r\n            string memory url = slotWinner[_slot].url;\r\n            uint256 amount = slotBid[_slot].amount;\r\n            return (winner, beneficiary, url, amount);\r\n        } else {\r\n            return (\r\n                coDefault.submitBatchAddress,\r\n                coDefault.returnAddress,\r\n                coDefault.url,\r\n                0\r\n            );\r\n        }\r\n    }\r\n\r\n    /**\r\n     * @dev Retrieve block number\r\n     * @return current block number\r\n     */\r\n    function getBlockNumber() public view returns (uint256) {\r\n        return block.number;\r\n    }\r\n\r\n    /**\r\n     * @dev Calculate slot from block number\r\n     * @param numBlock block number\r\n     * @return slot number\r\n     */\r\n    function block2slot(uint256 numBlock) public view returns (uint32) {\r\n        if (numBlock < genesisBlock) return 0;\r\n        return uint32((numBlock - genesisBlock) / (blocksPerSlot));\r\n    }\r\n\r\n    /**\r\n     * @dev Retrieve current slot\r\n     * @return slot number\r\n     */\r\n    function currentSlot() public view returns (uint32) {\r\n        return block2slot(getBlockNumber());\r\n    }\r\n\r\n    /**\r\n     * @dev Retrieve the first block number for a given slot\r\n     * @param slot slot number\r\n     * @return block number\r\n     */\r\n    function getBlockBySlot(uint32 slot) public view returns (uint256) {\r\n        return (genesisBlock + slot * blocksPerSlot);\r\n    }\r\n}\r\n",
  "sourcePath": "C:\\Users\\lazypuppet\\ethereum\\snaketh4x0r\\BurnAuctionProject\\contracts\\BurnAuction.sol",
  "compiler": {
    "name": "solc",
    "version": "0.5.15+commit.6a57276f.Emscripten.clang"
  },
  "schemaVersion": "3.0.18",
  "updatedAt": "2020-08-25T17:11:05.113Z",
  "devdoc": {
    "methods": {
      "bidBySelf(uint32,string)": {
        "details": "bid for self",
        "params": {
          "_slot": "slot number",
          "_url": "Coordinator url"
        }
      },
      "bidForOthers(uint32,address,address,string)": {
        "details": "bid for others using different address arguments",
        "params": {
          "_returnAddress": "address to return funds",
          "_slot": "slot number",
          "_submitBatchAddress": "address to submit batch from",
          "_url": "Coordinator url"
        }
      },
      "block2slot(uint256)": {
        "details": "Calculate slot from block number",
        "params": {
          "numBlock": "block number"
        },
        "return": "slot number"
      },
      "checkWinner(uint256,address)": {
        "details": "check if given address winner of slot or not",
        "params": {
          "_slot": "slot number",
          "_winner": "winer address to be checked"
        },
        "return": "bool"
      },
      "constructor": {
        "details": "BurnAuction Constructor Set first block where the first slot begin",
        "params": {
          "_blocksPerSlot": "number of blocks in slot",
          "_burnAddress": "burner address",
          "_delayGenesis": "delay genesisBlock by this",
          "_maxTx": "maximum transactions",
          "_minBid": "minimum bid for a auction slot",
          "_minNextSlots": "differance between currentslot and auction slot"
        }
      },
      "currentSlot()": {
        "details": "Retrieve current slot",
        "return": "slot number"
      },
      "getBlockBySlot(uint32)": {
        "details": "Retrieve the first block number for a given slot",
        "params": {
          "slot": "slot number"
        },
        "return": "block number"
      },
      "getBlockNumber()": {
        "details": "Retrieve block number",
        "return": "current block number"
      },
      "getCurrentWinner()": {
        "details": "Retrieve the current slot winner address",
        "return": "submitBatchAddress,returnAddress,Coordinator url,bidprice"
      },
      "getWinner(uint32)": {
        "details": "Retrieve slot winner",
        "params": {
          "_slot": "slot number"
        },
        "return": "submitBatchAddress,returnAddress,Coordinator url,bidprice"
      }
    }
  },
  "userdoc": {
    "methods": {}
  }
}