{
  "contractName": "BurnAuction",
  "abi": [
    {
      "inputs": [
        {
          "internalType": "uint256",
          "name": "_maxTx",
          "type": "uint256"
        },
        {
          "internalType": "address payable",
          "name": "_burnAddress",
          "type": "address"
        }
      ],
      "payable": false,
      "stateMutability": "nonpayable",
      "type": "constructor"
    },
    {
      "anonymous": false,
      "inputs": [
        {
          "indexed": false,
          "internalType": "uint32",
          "name": "slot",
          "type": "uint32"
        },
        {
          "indexed": false,
          "internalType": "uint256",
          "name": "amount",
          "type": "uint256"
        },
        {
          "indexed": false,
          "internalType": "uint256",
          "name": "sumtotalFees",
          "type": "uint256"
        },
        {
          "indexed": false,
          "internalType": "uint256",
          "name": "targetProfit",
          "type": "uint256"
        },
        {
          "indexed": false,
          "internalType": "address",
          "name": "Coordinator",
          "type": "address"
        },
        {
          "indexed": false,
          "internalType": "string",
          "name": "url",
          "type": "string"
        }
      ],
      "name": "currentBestBid",
      "type": "event"
    },
    {
      "constant": true,
      "inputs": [],
      "name": "BLOCKS_PER_SLOT",
      "outputs": [
        {
          "internalType": "uint32",
          "name": "",
          "type": "uint32"
        }
      ],
      "payable": false,
      "stateMutability": "view",
      "type": "function"
    },
    {
      "constant": true,
      "inputs": [],
      "name": "DELAY_GENESIS",
      "outputs": [
        {
          "internalType": "uint256",
          "name": "",
          "type": "uint256"
        }
      ],
      "payable": false,
      "stateMutability": "view",
      "type": "function"
    },
    {
      "constant": true,
      "inputs": [],
      "name": "MIN_BID",
      "outputs": [
        {
          "internalType": "uint256",
          "name": "",
          "type": "uint256"
        }
      ],
      "payable": false,
      "stateMutability": "view",
      "type": "function"
    },
    {
      "constant": true,
      "inputs": [],
      "name": "SLOT_DEADLINE",
      "outputs": [
        {
          "internalType": "uint256",
          "name": "",
          "type": "uint256"
        }
      ],
      "payable": false,
      "stateMutability": "view",
      "type": "function"
    },
    {
      "constant": true,
      "inputs": [],
      "name": "coDefault",
      "outputs": [
        {
          "internalType": "address payable",
          "name": "beneficiaryAddress",
          "type": "address"
        },
        {
          "internalType": "address",
          "name": "submitBatchAddress",
          "type": "address"
        },
        {
          "internalType": "address",
          "name": "withdrawAddress",
          "type": "address"
        },
        {
          "internalType": "string",
          "name": "url",
          "type": "string"
        }
      ],
      "payable": false,
      "stateMutability": "view",
      "type": "function"
    },
    {
      "constant": true,
      "inputs": [],
      "name": "genesisBlock",
      "outputs": [
        {
          "internalType": "uint256",
          "name": "",
          "type": "uint256"
        }
      ],
      "payable": false,
      "stateMutability": "view",
      "type": "function"
    },
    {
      "constant": true,
      "inputs": [
        {
          "internalType": "uint256",
          "name": "",
          "type": "uint256"
        }
      ],
      "name": "infoSlot",
      "outputs": [
        {
          "internalType": "uint256",
          "name": "slotPrice",
          "type": "uint256"
        },
        {
          "internalType": "uint256",
          "name": "maxtargetProfit",
          "type": "uint256"
        }
      ],
      "payable": false,
      "stateMutability": "view",
      "type": "function"
    },
    {
      "constant": true,
      "inputs": [],
      "name": "maxTx",
      "outputs": [
        {
          "internalType": "uint256",
          "name": "",
          "type": "uint256"
        }
      ],
      "payable": false,
      "stateMutability": "view",
      "type": "function"
    },
    {
      "constant": true,
      "inputs": [
        {
          "internalType": "uint256",
          "name": "",
          "type": "uint256"
        }
      ],
      "name": "slotBid",
      "outputs": [
        {
          "internalType": "uint256",
          "name": "amount",
          "type": "uint256"
        },
        {
          "internalType": "bool",
          "name": "initialized",
          "type": "bool"
        },
        {
          "internalType": "uint256",
          "name": "targetProfit",
          "type": "uint256"
        },
        {
          "internalType": "uint256",
          "name": "sumtotalFees",
          "type": "uint256"
        }
      ],
      "payable": false,
      "stateMutability": "view",
      "type": "function"
    },
    {
      "constant": true,
      "inputs": [
        {
          "internalType": "uint256",
          "name": "",
          "type": "uint256"
        }
      ],
      "name": "slotWinner",
      "outputs": [
        {
          "internalType": "address payable",
          "name": "beneficiaryAddress",
          "type": "address"
        },
        {
          "internalType": "address",
          "name": "submitBatchAddress",
          "type": "address"
        },
        {
          "internalType": "address",
          "name": "withdrawAddress",
          "type": "address"
        },
        {
          "internalType": "string",
          "name": "url",
          "type": "string"
        }
      ],
      "payable": false,
      "stateMutability": "view",
      "type": "function"
    },
    {
      "constant": false,
      "inputs": [
        {
          "internalType": "uint32",
          "name": "_slot",
          "type": "uint32"
        },
        {
          "internalType": "string",
          "name": "_url",
          "type": "string"
        },
        {
          "internalType": "uint256",
          "name": "_targetProfit",
          "type": "uint256"
        },
        {
          "internalType": "uint256",
          "name": "_sumtotalFees",
          "type": "uint256"
        }
      ],
      "name": "bidBySelf",
      "outputs": [],
      "payable": true,
      "stateMutability": "payable",
      "type": "function"
    },
    {
      "constant": false,
      "inputs": [
        {
          "internalType": "uint32",
          "name": "_slot",
          "type": "uint32"
        },
        {
          "internalType": "uint256",
          "name": "_targetProfit",
          "type": "uint256"
        },
        {
          "internalType": "uint256",
          "name": "_sumtotalFees",
          "type": "uint256"
        },
        {
          "internalType": "address payable",
          "name": "_beneficiaryAddress",
          "type": "address"
        },
        {
          "internalType": "address",
          "name": "_submitBatchAddress",
          "type": "address"
        },
        {
          "internalType": "address",
          "name": "_withdrawAddress",
          "type": "address"
        },
        {
          "internalType": "string",
          "name": "_url",
          "type": "string"
        }
      ],
      "name": "bidForOthers",
      "outputs": [],
      "payable": true,
      "stateMutability": "payable",
      "type": "function"
    },
    {
      "constant": false,
      "inputs": [
        {
          "internalType": "uint256",
          "name": "_slot",
          "type": "uint256"
        }
      ],
      "name": "getWinner",
      "outputs": [
        {
          "internalType": "address",
          "name": "",
          "type": "address"
        },
        {
          "internalType": "address",
          "name": "",
          "type": "address"
        },
        {
          "internalType": "string",
          "name": "",
          "type": "string"
        },
        {
          "internalType": "uint256",
          "name": "",
          "type": "uint256"
        }
      ],
      "payable": false,
      "stateMutability": "nonpayable",
      "type": "function"
    },
    {
      "constant": false,
      "inputs": [
        {
          "internalType": "uint256",
          "name": "_slot",
          "type": "uint256"
        },
        {
          "internalType": "address",
          "name": "_coordinator",
          "type": "address"
        }
      ],
      "name": "checkWinner",
      "outputs": [
        {
          "internalType": "bool",
          "name": "",
          "type": "bool"
        }
      ],
      "payable": false,
      "stateMutability": "nonpayable",
      "type": "function"
    },
    {
      "constant": true,
      "inputs": [],
      "name": "getBlockNumber",
      "outputs": [
        {
          "internalType": "uint256",
          "name": "",
          "type": "uint256"
        }
      ],
      "payable": false,
      "stateMutability": "view",
      "type": "function"
    },
    {
      "constant": true,
      "inputs": [
        {
          "internalType": "uint256",
          "name": "numBlock",
          "type": "uint256"
        }
      ],
      "name": "block2slot",
      "outputs": [
        {
          "internalType": "uint32",
          "name": "",
          "type": "uint32"
        }
      ],
      "payable": false,
      "stateMutability": "view",
      "type": "function"
    },
    {
      "constant": true,
      "inputs": [],
      "name": "currentSlot",
      "outputs": [
        {
          "internalType": "uint32",
          "name": "",
          "type": "uint32"
        }
      ],
      "payable": false,
      "stateMutability": "view",
      "type": "function"
    },
    {
      "constant": true,
      "inputs": [
        {
          "internalType": "uint32",
          "name": "slot",
          "type": "uint32"
        }
      ],
      "name": "getBlockBySlot",
      "outputs": [
        {
          "internalType": "uint256",
          "name": "",
          "type": "uint256"
        }
      ],
      "payable": false,
      "stateMutability": "view",
      "type": "function"
    }
  ],
  "bytecode": "0x608060405234801561001057600080fd5b506040516113ca3803806113ca8339818101604052604081101561003357600080fd5b8101908080519060200190929190805190602001909291905050506103e86100686100be640100000000026401000000009004565b016000819055508160018190555080600260006101000a81548173ffffffffffffffffffffffffffffffffffffffff021916908373ffffffffffffffffffffffffffffffffffffffff16021790555050506100c6565b600043905090565b6112f5806100d56000396000f3fe608060405260043610610126576000357c0100000000000000000000000000000000000000000000000000000000900480637437681e116100b257806396654327116100815780639665432714610736578063a87a2ead146107d3578063b859605a1461082e578063bf06b76514610957578063ce69cd201461098257610126565b80637437681e1461046b578063838dd743146104965780638f42883f146104ec57806390f8ad4b1461063957610126565b8063429e95b4116100f9578063429e95b41461032d57806342cbb15c146103955780634cdc9c63146103c0578063654a2bbb146103eb5780636aff0fc51461044057610126565b80632243de471461012b578063227b0354146101625780633359632e146101d55780634129b2c91461020c575b600080fd5b34801561013757600080fd5b506101406109ad565b604051808263ffffffff1663ffffffff16815260200191505060405180910390f35b34801561016e57600080fd5b506101bb6004803603604081101561018557600080fd5b8101908080359060200190929190803573ffffffffffffffffffffffffffffffffffffffff1690602001909291905050506109b2565b604051808215151515815260200191505060405180910390f35b3480156101e157600080fd5b506101ea610a38565b604051808263ffffffff1663ffffffff16815260200191505060405180910390f35b34801561021857600080fd5b506102456004803603602081101561022f57600080fd5b8101908080359060200190929190505050610a4f565b604051808573ffffffffffffffffffffffffffffffffffffffff1673ffffffffffffffffffffffffffffffffffffffff1681526020018473ffffffffffffffffffffffffffffffffffffffff1673ffffffffffffffffffffffffffffffffffffffff16815260200180602001838152602001828103825284818151815260200191508051906020019080838360005b838110156102ef5780820151818401526020810190506102d4565b50505050905090810190601f16801561031c5780820380516001836020036101000a031916815260200191505b509550505050505060405180910390f35b34801561033957600080fd5b506103666004803603602081101561035057600080fd5b8101908080359060200190929190505050610bb0565b604051808581526020018415151515815260200183815260200182815260200194505050505060405180910390f35b3480156103a157600080fd5b506103aa610bed565b6040518082815260200191505060405180910390f35b3480156103cc57600080fd5b506103d5610bf5565b6040518082815260200191505060405180910390f35b3480156103f757600080fd5b5061042a6004803603602081101561040e57600080fd5b81019080803563ffffffff169060200190929190505050610bfb565b6040518082815260200191505060405180910390f35b34801561044c57600080fd5b50610455610c12565b6040518082815260200191505060405180910390f35b34801561047757600080fd5b50610480610c17565b6040518082815260200191505060405180910390f35b3480156104a257600080fd5b506104cf600480360360208110156104b957600080fd5b8101908080359060200190929190505050610c1d565b604051808381526020018281526020019250505060405180910390f35b3480156104f857600080fd5b506105256004803603602081101561050f57600080fd5b8101908080359060200190929190505050610c41565b604051808573ffffffffffffffffffffffffffffffffffffffff1673ffffffffffffffffffffffffffffffffffffffff1681526020018473ffffffffffffffffffffffffffffffffffffffff1673ffffffffffffffffffffffffffffffffffffffff1681526020018373ffffffffffffffffffffffffffffffffffffffff1673ffffffffffffffffffffffffffffffffffffffff16815260200180602001828103825283818151815260200191508051906020019080838360005b838110156105fb5780820151818401526020810190506105e0565b50505050905090810190601f1680156106285780820380516001836020036101000a031916815260200191505b509550505050505060405180910390f35b610734600480360360e081101561064f57600080fd5b81019080803563ffffffff1690602001909291908035906020019092919080359060200190929190803573ffffffffffffffffffffffffffffffffffffffff169060200190929190803573ffffffffffffffffffffffffffffffffffffffff169060200190929190803573ffffffffffffffffffffffffffffffffffffffff169060200190929190803590602001906401000000008111156106f057600080fd5b82018360208201111561070257600080fd5b8035906020019184600183028401116401000000008311171561072457600080fd5b9091929391929390505050610d69565b005b6107d16004803603608081101561074c57600080fd5b81019080803563ffffffff1690602001909291908035906020019064010000000081111561077957600080fd5b82018360208201111561078b57600080fd5b803590602001918460018302840111640100000000831117156107ad57600080fd5b90919293919293908035906020019092919080359060200190929190505050610f2b565b005b3480156107df57600080fd5b5061080c600480360360208110156107f657600080fd5b81019080803590602001909291905050506110ea565b604051808263ffffffff1663ffffffff16815260200191505060405180910390f35b34801561083a57600080fd5b5061084361111b565b604051808573ffffffffffffffffffffffffffffffffffffffff1673ffffffffffffffffffffffffffffffffffffffff1681526020018473ffffffffffffffffffffffffffffffffffffffff1673ffffffffffffffffffffffffffffffffffffffff1681526020018373ffffffffffffffffffffffffffffffffffffffff1673ffffffffffffffffffffffffffffffffffffffff16815260200180602001828103825283818151815260200191508051906020019080838360005b838110156109195780820151818401526020810190506108fe565b50505050905090810190601f1680156109465780820380516001836020036101000a031916815260200191505b509550505050505060405180910390f35b34801561096357600080fd5b5061096c611231565b6040518082815260200191505060405180910390f35b34801561098e57600080fd5b50610997611237565b6040518082815260200191505060405180910390f35b606481565b6000806007600085815260200190815260200160002060010160009054906101000a900473ffffffffffffffffffffffffffffffffffffffff1690508273ffffffffffffffffffffffffffffffffffffffff168173ffffffffffffffffffffffffffffffffffffffff161415610a2c576001915050610a32565b60009150505b92915050565b6000610a4a610a45610bed565b6110ea565b905090565b60008060606000806008600087815260200190815260200160002060000154905060006007600088815260200190815260200160002060010160009054906101000a900473ffffffffffffffffffffffffffffffffffffffff16905060006007600089815260200190815260200160002060000160009054906101000a900473ffffffffffffffffffffffffffffffffffffffff1690506060600760008a81526020019081526020016000206003018054600181600116156101000203166002900480601f016020809104026020016040519081016040528092919081815260200182805460018160011615610100020316600290048015610b925780601f10610b6757610100808354040283529160200191610b92565b820191906000526020600020905b815481529060010190602001808311610b7557829003601f168201915b50505050509050828282869750975097509750505050509193509193565b60086020528060005260406000206000915090508060000154908060010160009054906101000a900460ff16908060020154908060030154905084565b600043905090565b60005481565b60006064820263ffffffff16600054019050919050565b601481565b60015481565b60096020528060005260406000206000915090508060000154908060010154905082565b60076020528060005260406000206000915090508060000160009054906101000a900473ffffffffffffffffffffffffffffffffffffffff16908060010160009054906101000a900473ffffffffffffffffffffffffffffffffffffffff16908060020160009054906101000a900473ffffffffffffffffffffffffffffffffffffffff1690806003018054600181600116156101000203166002900480601f016020809104026020016040519081016040528092919081815260200182805460018160011615610100020316600290048015610d5f5780601f10610d3457610100808354040283529160200191610d5f565b820191906000526020600020905b815481529060010190602001808311610d4257829003601f168201915b5050505050905084565b6002610d73610a38565b63ffffffff16018863ffffffff161015610df5576040517f08c379a000000000000000000000000000000000000000000000000000000000815260040180806020018281038252601e8152602001807f546869732061756374696f6e20697320616c726561647920636c6f736564000081525060200191505060405180910390fd5b610dfd611256565b60405180608001604052808773ffffffffffffffffffffffffffffffffffffffff1681526020018673ffffffffffffffffffffffffffffffffffffffff1681526020018573ffffffffffffffffffffffffffffffffffffffff16815260200184848080601f016020809104026020016040519081016040528093929190818152602001838380828437600081840152601f19601f8201169050808301925050505050505081525090506000610eb48a838b8b611243565b9050600260009054906101000a900473ffffffffffffffffffffffffffffffffffffffff1673ffffffffffffffffffffffffffffffffffffffff166108fc829081150290604051600060405180830381858888f19350505050158015610f1e573d6000803e3d6000fd5b5050505050505050505050565b6002610f35610a38565b63ffffffff16018563ffffffff161015610fb7576040517f08c379a000000000000000000000000000000000000000000000000000000000815260040180806020018281038252601e8152602001807f546869732061756374696f6e20697320616c726561647920636c6f736564000081525060200191505060405180910390fd5b610fbf611256565b60405180608001604052803373ffffffffffffffffffffffffffffffffffffffff1681526020013373ffffffffffffffffffffffffffffffffffffffff1681526020013373ffffffffffffffffffffffffffffffffffffffff16815260200186868080601f016020809104026020016040519081016040528093929190818152602001838380828437600081840152601f19601f820116905080830192505050505050508152509050600061107687838686611243565b9050600260009054906101000a900473ffffffffffffffffffffffffffffffffffffffff1673ffffffffffffffffffffffffffffffffffffffff166108fc829081150290604051600060405180830381858888f193505050501580156110e0573d6000803e3d6000fd5b5050505050505050565b600080548210156110fe5760009050611116565b606463ffffffff1660005483038161111257fe5b0490505b919050565b60038060000160009054906101000a900473ffffffffffffffffffffffffffffffffffffffff16908060010160009054906101000a900473ffffffffffffffffffffffffffffffffffffffff16908060020160009054906101000a900473ffffffffffffffffffffffffffffffffffffffff1690806003018054600181600116156101000203166002900480601f0160208091040260200160405190810160405280929190818152602001828054600181600116156101000203166002900480156112275780601f106111fc57610100808354040283529160200191611227565b820191906000526020600020905b81548152906001019060200180831161120a57829003601f168201915b5050505050905084565b6103e881565b670de0b6b3a764000081565b6000806000905080915050949350505050565b6040518060800160405280600073ffffffffffffffffffffffffffffffffffffffff168152602001600073ffffffffffffffffffffffffffffffffffffffff168152602001600073ffffffffffffffffffffffffffffffffffffffff16815260200160608152509056fea265627a7a7231582002516aaca3c01d24cb8bb08ee2fe2fc1cc6c596c6d8d10100f73e4208690b71064736f6c634300050f0032",
  "source": "pragma solidity ^0.5.15;\r\n\r\ncontract BurnAuction {\r\n    \r\n\t\r\n\t// discuss if you want to incentivize early bidders for slots using bonus\r\n\t// todo make uint types explicit\r\n\t\r\n\t\r\n\t// constants \r\n\t// Defines slot block duration\r\n\t// number of blocks avaible in slot\r\n\tuint32 constant public BLOCKS_PER_SLOT = 100;\r\n\t// number of blocks after contract deployment for genesisBlock number\r\n    uint constant public DELAY_GENESIS = 1000;\r\n\t// deadline after which slot not available for bidding\r\n    uint constant public SLOT_DEADLINE = 20;\r\n\t// Minimum bid to enter the auction\r\n    uint public constant MIN_BID = 1 ether;\r\n\t// Min differance between currentslot and auction slots\r\n    uint constant MIN_NEXT_SLOTS = 2;\r\n\t\r\n\t// variables\r\n\t// First block where the first slot begins\r\n    uint public genesisBlock;\r\n\t// Maximum rollup transactions: either off-chain or on-chain transactions\r\n    uint public maxTx;\r\n\t// Burn Address\r\n    address payable burnAddress;\r\n    // Default Coordinator\r\n\t// will have to decide if we want to keep default Coordinator or not\r\n    Coordinator public coDefault;\r\n\t\r\n\t// Coordinator structure\r\n    struct Coordinator {\r\n\t    // address to return Coordinator failed bid amount back\r\n        address payable beneficiaryAddress;\r\n\t\t// Coordinator address having right to submit batch\r\n        address submitBatchAddress;\r\n\t\t//might not need this\r\n\t\t// address to sends funds if bid withdrawn\r\n        address withdrawAddress;\r\n\t\t// Coordinator url \r\n        string url;\r\n    }\r\n\r\n    // bid structure\r\n    struct Bid {\r\n\t    // bid amount = sumtotalFees - targetProfit\r\n        uint amount;\r\n\t\t// used to indicate active auction for slot\r\n        bool initialized;\r\n\t\t// profit per auction slot by Coordinator\r\n        uint targetProfit;\r\n\t    // sum of fees of all transactions included in slot\r\n\t    uint sumtotalFees;\r\n    }\r\n\t\r\n\t// information of slot structure\r\n    struct InfoSlot {\r\n        // current price of slot\r\n        uint slotPrice;\r\n        // current max target profit on slot\r\n\t\tuint maxtargetProfit;\r\n    }\r\n\t\r\n\t// Mappings\r\n\t// mapping to control winner of slot\r\n    mapping(uint => Coordinator) public slotWinner;\r\n    // mapping to control bid by slot\r\n    mapping(uint => Bid) public slotBid;\r\n    // mapping to control information of slot\r\n    mapping(uint => InfoSlot) public infoSlot;\r\n\t\r\n\t// events\r\n\t/**\r\n     * @dev Event called when an Coordinator beat the current best bid of an ongoing auction\r\n     */\r\n    event currentBestBid(uint32 slot, uint amount, uint sumtotalFees, uint targetProfit, address Coordinator, string url);\r\n    \r\n\t// todo move all governance parameters in Constructor\r\n\t/**\r\n     * @dev BurnAuction Constructor\r\n     * Set first block where the first slot begin\r\n     * @param _burnAddress burner address\r\n     * @param _maxTx maximum transactions\r\n     */\r\n    constructor(uint256 _maxTx, address payable _burnAddress) public {\r\n        genesisBlock = getBlockNumber() + DELAY_GENESIS;\r\n        maxTx = _maxTx;\r\n        burnAddress = _burnAddress;\r\n    }\r\n\t\r\n\t// functions\r\n\t//update with natspec comments\r\n\t\r\n\tfunction bid(\r\n\t    uint32 slot,\r\n\t\tCoordinator memory co,\r\n\t\tuint _targetProfit,\r\n\t\tuint _sumtotalFees\r\n\t) internal returns (uint) {\r\n\t    uint burnBid = 0;\r\n\t\treturn burnBid;\r\n\t}\r\n\t\r\n\t//complete them\r\n\t\r\n\t//function by which coordinator bids for himself\r\n\tfunction bidBySelf(uint32 _slot, string calldata _url, uint _targetProfit, uint _sumtotalFees) external payable {\r\n\t    require(_slot >= currentSlot() + MIN_NEXT_SLOTS, 'This auction is already closed');\r\n\t    Coordinator memory co = Coordinator(msg.sender, msg.sender, msg.sender, _url);\r\n\t\tuint burnBid = bid(_slot,co,_targetProfit,_sumtotalFees);\r\n\t\tburnAddress.transfer(burnBid);\r\n\t}\r\n\t\r\n\t//coordinator bids using others address arguments\r\n\tfunction bidForOthers(\r\n\t    uint32 _slot,\r\n\t\tuint _targetProfit,\r\n\t\tuint _sumtotalFees,\r\n\t\taddress payable _beneficiaryAddress,\r\n\t\taddress _submitBatchAddress,\r\n\t\taddress _withdrawAddress,\r\n\t\tstring calldata _url\r\n\t) external payable {\r\n\t    require(_slot >= currentSlot() + MIN_NEXT_SLOTS, 'This auction is already closed');\r\n\t\tCoordinator memory co = Coordinator(_beneficiaryAddress, _submitBatchAddress, _withdrawAddress, _url);\r\n\t\tuint burnBid = bid(_slot,co,_targetProfit,_sumtotalFees);\r\n\t\tburnAddress.transfer(burnBid);\r\n\t}\r\n\t\r\n\t// function needs to be exposed-done\r\n\t/**\r\n     * @dev Retrieve slot winner\r\n     * @return submitBatchAddress,beneficiaryAddress,Coordinator url,bidamount,targetProfit\r\n     */\r\n\tfunction getWinner(uint _slot) external returns (address, address, string memory, uint) {\r\n\t\tuint256 amount = slotBid[_slot].amount;\r\n        address batchSubmitter = slotWinner[_slot].submitBatchAddress;\r\n        address beneficiary = slotWinner[_slot].beneficiaryAddress;\r\n        string memory url = slotWinner[_slot].url;\r\n        return (batchSubmitter, beneficiary, url, amount);\r\n\t}\r\n\t\r\n\tfunction checkWinner(uint _slot, address _coordinator) external returns (bool) {\r\n\t\taddress batchSubmitter = slotWinner[_slot].submitBatchAddress;\r\n\t\tif(batchSubmitter == _coordinator){\r\n\t\t\treturn true;\r\n\t\t} else {\r\n\t\t\treturn false;\r\n\t\t}\r\n\t}\r\n\t\r\n\t//helper functions\r\n\t/**\r\n     * @dev Retrieve block number\r\n     * @return current block number\r\n     */\r\n    function getBlockNumber() public view returns (uint) {\r\n        return block.number;\r\n    }\r\n\r\n    /**\r\n     * @dev Calculate slot from block number\r\n     * @param numBlock block number\r\n     * @return slot number\r\n     */\r\n    function block2slot(uint numBlock) public view returns (uint32) {\r\n        if (numBlock < genesisBlock) return 0;\r\n        return uint32((numBlock - genesisBlock) / (BLOCKS_PER_SLOT));\r\n    }\r\n\t\r\n\t/**\r\n     * @dev Retrieve current slot\r\n     * @return slot number\r\n     */\r\n    function currentSlot() public view returns (uint32) {\r\n        return block2slot(getBlockNumber());\r\n    }\r\n\r\n    /**\r\n     * @dev Retrieve the first block number for a given slot\r\n     * @param slot slot number\r\n     * @return block number\r\n     */\r\n    function getBlockBySlot(uint32 slot) public view returns (uint) {\r\n        return (genesisBlock + slot*BLOCKS_PER_SLOT);\r\n    }\r\n}",
  "sourcePath": "C:\\Users\\lazypuppet\\ethereum\\snaketh4x0r\\BurnAuctionProject\\contracts\\BurnAuction.sol",
  "compiler": {
    "name": "solc",
    "version": "0.5.15+commit.6a57276f.Emscripten.clang"
  },
  "schemaVersion": "3.1.0",
  "updatedAt": "2020-08-12T14:32:45.563Z",
  "devdoc": {
    "methods": {
      "block2slot(uint256)": {
        "details": "Calculate slot from block number",
        "params": {
          "numBlock": "block number"
        },
        "return": "slot number"
      },
      "constructor": {
        "details": "BurnAuction Constructor Set first block where the first slot begin",
        "params": {
          "_burnAddress": "burner address",
          "_maxTx": "maximum transactions"
        }
      },
      "currentSlot()": {
        "details": "Retrieve current slot",
        "return": "slot number"
      },
      "getBlockBySlot(uint32)": {
        "details": "Retrieve the first block number for a given slot",
        "params": {
          "slot": "slot number"
        },
        "return": "block number"
      },
      "getBlockNumber()": {
        "details": "Retrieve block number",
        "return": "current block number"
      },
      "getWinner(uint256)": {
        "details": "Retrieve slot winner",
        "return": "submitBatchAddress,beneficiaryAddress,Coordinator url,bidamount,targetProfit"
      }
    }
  },
  "userdoc": {
    "methods": {}
  }
}