{
  "contractName": "BurnAuction",
  "abi": [
    {
      "inputs": [
        {
          "internalType": "uint256",
          "name": "_maxTx",
          "type": "uint256"
        },
        {
          "internalType": "address payable",
          "name": "_burnAddress",
          "type": "address"
        },
        {
          "internalType": "uint32",
          "name": "_blocksPerSlot",
          "type": "uint32"
        },
        {
          "internalType": "uint256",
          "name": "_delayGenesis",
          "type": "uint256"
        },
        {
          "internalType": "uint256",
          "name": "_minBid",
          "type": "uint256"
        },
        {
          "internalType": "uint256",
          "name": "_minNextSlots",
          "type": "uint256"
        },
        {
          "internalType": "uint256",
          "name": "_minNextbid",
          "type": "uint256"
        },
        {
          "internalType": "address payable",
          "name": "defaultCoAddress",
          "type": "address"
        }
      ],
      "payable": false,
      "stateMutability": "nonpayable",
      "type": "constructor"
    },
    {
      "anonymous": false,
      "inputs": [
        {
          "indexed": false,
          "internalType": "uint32",
          "name": "slot",
          "type": "uint32"
        },
        {
          "indexed": false,
          "internalType": "uint256",
          "name": "amount",
          "type": "uint256"
        },
        {
          "indexed": false,
          "internalType": "address",
          "name": "Coordinator",
          "type": "address"
        }
      ],
      "name": "currentBestBid",
      "type": "event"
    },
    {
      "constant": true,
      "inputs": [],
      "name": "blocksPerSlot",
      "outputs": [
        {
          "internalType": "uint32",
          "name": "",
          "type": "uint32"
        }
      ],
      "payable": false,
      "stateMutability": "view",
      "type": "function"
    },
    {
      "constant": true,
      "inputs": [],
      "name": "coDefault",
      "outputs": [
        {
          "internalType": "address payable",
          "name": "coordinatorAddress",
          "type": "address"
        }
      ],
      "payable": false,
      "stateMutability": "view",
      "type": "function"
    },
    {
      "constant": true,
      "inputs": [],
      "name": "delayGenesis",
      "outputs": [
        {
          "internalType": "uint256",
          "name": "",
          "type": "uint256"
        }
      ],
      "payable": false,
      "stateMutability": "view",
      "type": "function"
    },
    {
      "constant": true,
      "inputs": [],
      "name": "genesisBlock",
      "outputs": [
        {
          "internalType": "uint256",
          "name": "",
          "type": "uint256"
        }
      ],
      "payable": false,
      "stateMutability": "view",
      "type": "function"
    },
    {
      "constant": true,
      "inputs": [],
      "name": "maxTx",
      "outputs": [
        {
          "internalType": "uint256",
          "name": "",
          "type": "uint256"
        }
      ],
      "payable": false,
      "stateMutability": "view",
      "type": "function"
    },
    {
      "constant": true,
      "inputs": [],
      "name": "minBid",
      "outputs": [
        {
          "internalType": "uint256",
          "name": "",
          "type": "uint256"
        }
      ],
      "payable": false,
      "stateMutability": "view",
      "type": "function"
    },
    {
      "constant": true,
      "inputs": [],
      "name": "minNextSlots",
      "outputs": [
        {
          "internalType": "uint256",
          "name": "",
          "type": "uint256"
        }
      ],
      "payable": false,
      "stateMutability": "view",
      "type": "function"
    },
    {
      "constant": true,
      "inputs": [],
      "name": "minNextbid",
      "outputs": [
        {
          "internalType": "uint256",
          "name": "",
          "type": "uint256"
        }
      ],
      "payable": false,
      "stateMutability": "view",
      "type": "function"
    },
    {
      "constant": true,
      "inputs": [
        {
          "internalType": "uint256",
          "name": "",
          "type": "uint256"
        }
      ],
      "name": "slotBid",
      "outputs": [
        {
          "internalType": "uint256",
          "name": "amount",
          "type": "uint256"
        },
        {
          "internalType": "bool",
          "name": "initialized",
          "type": "bool"
        }
      ],
      "payable": false,
      "stateMutability": "view",
      "type": "function"
    },
    {
      "constant": true,
      "inputs": [
        {
          "internalType": "uint256",
          "name": "",
          "type": "uint256"
        }
      ],
      "name": "slotWinner",
      "outputs": [
        {
          "internalType": "address payable",
          "name": "coordinatorAddress",
          "type": "address"
        }
      ],
      "payable": false,
      "stateMutability": "view",
      "type": "function"
    },
    {
      "constant": false,
      "inputs": [
        {
          "internalType": "uint32",
          "name": "_slot",
          "type": "uint32"
        }
      ],
      "name": "bidBySelf",
      "outputs": [
        {
          "internalType": "bool",
          "name": "",
          "type": "bool"
        }
      ],
      "payable": true,
      "stateMutability": "payable",
      "type": "function"
    },
    {
      "constant": false,
      "inputs": [
        {
          "internalType": "uint32",
          "name": "_slot",
          "type": "uint32"
        },
        {
          "internalType": "address payable",
          "name": "_coordinatorAddress",
          "type": "address"
        }
      ],
      "name": "bidForOthers",
      "outputs": [
        {
          "internalType": "bool",
          "name": "",
          "type": "bool"
        }
      ],
      "payable": true,
      "stateMutability": "payable",
      "type": "function"
    },
    {
      "constant": true,
      "inputs": [],
      "name": "getCurrentWinner",
      "outputs": [
        {
          "internalType": "address",
          "name": "",
          "type": "address"
        }
      ],
      "payable": false,
      "stateMutability": "view",
      "type": "function"
    },
    {
      "constant": true,
      "inputs": [
        {
          "internalType": "uint256",
          "name": "numBlock",
          "type": "uint256"
        }
      ],
      "name": "block2slot",
      "outputs": [
        {
          "internalType": "uint32",
          "name": "",
          "type": "uint32"
        }
      ],
      "payable": false,
      "stateMutability": "view",
      "type": "function"
    },
    {
      "constant": true,
      "inputs": [],
      "name": "currentSlot",
      "outputs": [
        {
          "internalType": "uint32",
          "name": "",
          "type": "uint32"
        }
      ],
      "payable": false,
      "stateMutability": "view",
      "type": "function"
    },
    {
      "constant": true,
      "inputs": [],
      "name": "getBlockNumber",
      "outputs": [
        {
          "internalType": "uint256",
          "name": "",
          "type": "uint256"
        }
      ],
      "payable": false,
      "stateMutability": "view",
      "type": "function"
    },
    {
      "constant": true,
      "inputs": [
        {
          "internalType": "uint256",
          "name": "_slot",
          "type": "uint256"
        },
        {
          "internalType": "address",
          "name": "_winner",
          "type": "address"
        }
      ],
      "name": "checkWinner",
      "outputs": [
        {
          "internalType": "bool",
          "name": "",
          "type": "bool"
        }
      ],
      "payable": false,
      "stateMutability": "view",
      "type": "function"
    }
  ],
  "bytecode": "0x608060405234801561001057600080fd5b5060405161146d38038061146d833981810160405261010081101561003457600080fd5b810190808051906020019092919080519060200190929190805190602001909291908051906020019092919080519060200190929190805190602001909291908051906020019092919080519060200190929190505050846100a36101ac640100000000026401000000009004565b016003819055508760048190555086600060046101000a81548173ffffffffffffffffffffffffffffffffffffffff021916908373ffffffffffffffffffffffffffffffffffffffff160217905550856000806101000a81548163ffffffff021916908363ffffffff1602179055508460028190555083600681905550826005819055508160078190555060405180602001604052808273ffffffffffffffffffffffffffffffffffffffff16815250600160008201518160000160006101000a81548173ffffffffffffffffffffffffffffffffffffffff021916908373ffffffffffffffffffffffffffffffffffffffff16021790555090505050505050505050506101b4565b600043905090565b6112aa806101c36000396000f3fe60806040526004361061012b576000357c010000000000000000000000000000000000000000000000000000000090048063485f7356116100c25780637437681e116100915780638f42883f116100765780638f42883f146104a7578063a87a2ead14610522578063b859605a1461057d5761012b565b80637437681e1461045157806375986e451461047c5761012b565b8063485f7356146103375780634cdc9c63146103835780635938e4f9146103ae5780636afbbc88146103e55761012b565b80633a117e55116100fe5780633a117e551461025c5780633e109a1914610287578063429e95b4146102b257806342cbb15c1461030c5761012b565b80631251e3a514610130578063227b03541461015b578063329bfc33146101ce5780633359632e14610225575b600080fd5b34801561013c57600080fd5b506101456105d4565b6040518082815260200191505060405180910390f35b34801561016757600080fd5b506101b46004803603604081101561017e57600080fd5b8101908080359060200190929190803573ffffffffffffffffffffffffffffffffffffffff1690602001909291905050506105da565b604051808215151515815260200191505060405180910390f35b3480156101da57600080fd5b506101e36106f7565b604051808273ffffffffffffffffffffffffffffffffffffffff1673ffffffffffffffffffffffffffffffffffffffff16815260200191505060405180910390f35b34801561023157600080fd5b5061023a6107b1565b604051808263ffffffff1663ffffffff16815260200191505060405180910390f35b34801561026857600080fd5b506102716107c8565b6040518082815260200191505060405180910390f35b34801561029357600080fd5b5061029c6107ce565b6040518082815260200191505060405180910390f35b3480156102be57600080fd5b506102eb600480360360208110156102d557600080fd5b81019080803590602001909291905050506107d4565b60405180838152602001821515151581526020019250505060405180910390f35b34801561031857600080fd5b50610321610805565b6040518082815260200191505060405180910390f35b6103696004803603602081101561034d57600080fd5b81019080803563ffffffff16906020019092919050505061080d565b604051808215151515815260200191505060405180910390f35b34801561038f57600080fd5b5061039861094e565b6040518082815260200191505060405180910390f35b3480156103ba57600080fd5b506103c3610954565b604051808263ffffffff1663ffffffff16815260200191505060405180910390f35b610437600480360360408110156103fb57600080fd5b81019080803563ffffffff169060200190929190803573ffffffffffffffffffffffffffffffffffffffff169060200190929190505050610969565b604051808215151515815260200191505060405180910390f35b34801561045d57600080fd5b50610466610aab565b6040518082815260200191505060405180910390f35b34801561048857600080fd5b50610491610ab1565b6040518082815260200191505060405180910390f35b3480156104b357600080fd5b506104e0600480360360208110156104ca57600080fd5b8101908080359060200190929190505050610ab7565b604051808273ffffffffffffffffffffffffffffffffffffffff1673ffffffffffffffffffffffffffffffffffffffff16815260200191505060405180910390f35b34801561052e57600080fd5b5061055b6004803603602081101561054557600080fd5b8101908080359060200190929190505050610af5565b604051808263ffffffff1663ffffffff16815260200191505060405180910390f35b34801561058957600080fd5b50610592610b37565b604051808273ffffffffffffffffffffffffffffffffffffffff1673ffffffffffffffffffffffffffffffffffffffff16815260200191505060405180910390f35b60075481565b6000600115156009600085815260200190815260200160002060010160009054906101000a900460ff1615151415801561066457508173ffffffffffffffffffffffffffffffffffffffff16600160000160009054906101000a900473ffffffffffffffffffffffffffffffffffffffff1673ffffffffffffffffffffffffffffffffffffffff16145b1561067257600190506106f1565b60006008600085815260200190815260200160002060000160009054906101000a900473ffffffffffffffffffffffffffffffffffffffff1690508273ffffffffffffffffffffffffffffffffffffffff168173ffffffffffffffffffffffffffffffffffffffff1614156106eb5760019150506106f1565b60009150505b92915050565b6000806107026107b1565b90506000600860008363ffffffff16815260200190815260200160002060000160009054906101000a900473ffffffffffffffffffffffffffffffffffffffff169050600073ffffffffffffffffffffffffffffffffffffffff168173ffffffffffffffffffffffffffffffffffffffff16146107835780925050506107ae565b600160000160009054906101000a900473ffffffffffffffffffffffffffffffffffffffff16925050505b90565b60006107c36107be610805565b610af5565b905090565b60025481565b60065481565b60096020528060005260406000206000915090508060000154908060010160009054906101000a900460ff16905082565b600043905090565b600060055461081a6107b1565b63ffffffff16018263ffffffff16101561089c576040517f08c379a000000000000000000000000000000000000000000000000000000000815260040180806020018281038252601e8152602001807f546869732061756374696f6e20697320616c726561647920636c6f736564000081525060200191505060405180910390fd5b6108a4611204565b60405180602001604052803373ffffffffffffffffffffffffffffffffffffffff16815250905060006108d8848334610b63565b9050600060049054906101000a900473ffffffffffffffffffffffffffffffffffffffff1673ffffffffffffffffffffffffffffffffffffffff166108fc829081150290604051600060405180830381858888f19350505050158015610942573d6000803e3d6000fd5b50600192505050919050565b60035481565b6000809054906101000a900463ffffffff1681565b60006005546109766107b1565b63ffffffff16018363ffffffff1610156109f8576040517f08c379a000000000000000000000000000000000000000000000000000000000815260040180806020018281038252601e8152602001807f546869732061756374696f6e20697320616c726561647920636c6f736564000081525060200191505060405180910390fd5b610a00611204565b60405180602001604052808473ffffffffffffffffffffffffffffffffffffffff1681525090506000610a34858334610b63565b9050600060049054906101000a900473ffffffffffffffffffffffffffffffffffffffff1673ffffffffffffffffffffffffffffffffffffffff166108fc829081150290604051600060405180830381858888f19350505050158015610a9e573d6000803e3d6000fd5b5060019250505092915050565b60045481565b60055481565b60086020528060005260406000206000915090508060000160009054906101000a900473ffffffffffffffffffffffffffffffffffffffff16905081565b6000600354821015610b0a5760009050610b32565b6000809054906101000a900463ffffffff1663ffffffff16600354830381610b2e57fe5b0490505b919050565b60018060000160009054906101000a900473ffffffffffffffffffffffffffffffffffffffff16905081565b600080600090506000839050600960008763ffffffff16815260200190815260200160002060010160009054906101000a900460ff1615610cfb576000600960008863ffffffff1681526020019081526020016000206000015490506000610bfb610bec6064610bde60075486610edc90919063ffffffff16565b610f6290919063ffffffff16565b83610fac90919063ffffffff16565b905080831015610c56576040517f08c379a000000000000000000000000000000000000000000000000000000000815260040180806020018281038252602781526020018061124f6027913960400191505060405180910390fd5b6000600860008a63ffffffff16815260200190815260200160002060000160009054906101000a900473ffffffffffffffffffffffffffffffffffffffff1690508073ffffffffffffffffffffffffffffffffffffffff166108fc849081150290604051600060405180830381858888f19350505050158015610cdd573d6000803e3d6000fd5b50610cf1838561103490919063ffffffff16565b9450505050610dac565b600654811015610d73576040517f08c379a000000000000000000000000000000000000000000000000000000000815260040180806020018281038252601f8152602001807f626964206e6f7420656e6f756768207468616e206d696e696d756d206269640081525060200191505060405180910390fd5b6001600960008863ffffffff16815260200190815260200160002060010160006101000a81548160ff0219169083151502179055508091505b84600860008863ffffffff16815260200190815260200160002060008201518160000160006101000a81548173ffffffffffffffffffffffffffffffffffffffff021916908373ffffffffffffffffffffffffffffffffffffffff16021790555090505080600960008863ffffffff168152602001908152602001600020600001819055507faab4107317f6b322155dcdd4b753254d7c239f779856332be7e3519a9d07467e86600960008963ffffffff168152602001908152602001600020600001548760000151604051808463ffffffff1663ffffffff1681526020018381526020018273ffffffffffffffffffffffffffffffffffffffff1673ffffffffffffffffffffffffffffffffffffffff168152602001935050505060405180910390a181925050509392505050565b600080831415610eef5760009050610f5c565b6000828402905082848281610f0057fe5b0414610f57576040517f08c379a000000000000000000000000000000000000000000000000000000000815260040180806020018281038252602181526020018061122e6021913960400191505060405180910390fd5b809150505b92915050565b6000610fa483836040518060400160405280601a81526020017f536166654d6174683a206469766973696f6e206279207a65726f00000000000081525061107e565b905092915050565b60008082840190508381101561102a576040517f08c379a000000000000000000000000000000000000000000000000000000000815260040180806020018281038252601b8152602001807f536166654d6174683a206164646974696f6e206f766572666c6f77000000000081525060200191505060405180910390fd5b8091505092915050565b600061107683836040518060400160405280601e81526020017f536166654d6174683a207375627472616374696f6e206f766572666c6f770000815250611144565b905092915050565b6000808311829061112a576040517f08c379a00000000000000000000000000000000000000000000000000000000081526004018080602001828103825283818151815260200191508051906020019080838360005b838110156110ef5780820151818401526020810190506110d4565b50505050905090810190601f16801561111c5780820380516001836020036101000a031916815260200191505b509250505060405180910390fd5b50600083858161113657fe5b049050809150509392505050565b60008383111582906111f1576040517f08c379a00000000000000000000000000000000000000000000000000000000081526004018080602001828103825283818151815260200191508051906020019080838360005b838110156111b657808201518184015260208101905061119b565b50505050905090810190601f1680156111e35780820380516001836020036101000a031916815260200191505b509250505060405180910390fd5b5060008385039050809150509392505050565b6040518060200160405280600073ffffffffffffffffffffffffffffffffffffffff168152509056fe536166654d6174683a206d756c7469706c69636174696f6e206f766572666c6f77626964206e6f7420656e6f75676820746f206f75746269642063757272656e7420626964646572a265627a7a7231582035044304b480513d5ded040b768185a9375c0b79fa3475c5dbfb501b9ce268e964736f6c634300050f0032",
  "source": "pragma solidity ^0.5.15;\r\n\r\nimport {SafeMath} from \"./SafeMath.sol\";\r\n\r\ncontract BurnAuction {\r\n    using SafeMath for uint256;\r\n\r\n    // number of blocks available in slot\r\n    uint32 public blocksPerSlot;\r\n    // Burn Address\r\n    address payable burnAddress;\r\n    // Default Coordinator\r\n    Coordinator public coDefault;\r\n    // number of blocks after contract deployment for genesisBlock number\r\n    uint256 public delayGenesis;\r\n    // First block where the first slot begins\r\n    uint256 public genesisBlock;\r\n    // Maximum rollup transactions: either off-chain or on-chain transactions\r\n    uint256 public maxTx;\r\n    // Min differance between currentslot and auction slots\r\n    uint256 public minNextSlots;\r\n    // Minimum bid to enter the auction\r\n    uint256 public minBid;\r\n    // Min next bid percentage\r\n    uint256 public minNextbid;\r\n\r\n    // Coordinator structure\r\n    struct Coordinator {\r\n        // Coordinator Address\r\n        address payable coordinatorAddress;\r\n    }\r\n\r\n    // bid structure\r\n    struct Bid {\r\n        // bid amount(onchain) = sumtotalFees + targetProfit(offchain)\r\n        uint256 amount;\r\n        // used to indicate active auction for slot\r\n        bool initialized;\r\n    }\r\n\r\n    // mapping to control winner of slot\r\n    mapping(uint256 => Coordinator) public slotWinner;\r\n    // mapping to control bid by slot\r\n    mapping(uint256 => Bid) public slotBid;\r\n\r\n    /**\r\n     * @dev Event called when an Coordinator beat the current best bid of an ongoing auction\r\n     */\r\n    event currentBestBid(uint32 slot, uint256 amount, address Coordinator);\r\n\r\n    /**\r\n     * @dev BurnAuction Constructor\r\n     * Set first block where the first slot begin\r\n     * @param _maxTx maximum transactions\r\n     * @param _burnAddress burner address\r\n     * @param _blocksPerSlot number of blocks in slot\r\n     * @param _delayGenesis delay genesisBlock by this\r\n     * @param _minBid minimum bid for a auction slot\r\n     * @param _minNextSlots differance between currentslot and auction slot\r\n     */\r\n    constructor(\r\n        uint256 _maxTx,\r\n        address payable _burnAddress,\r\n        uint32 _blocksPerSlot,\r\n        uint256 _delayGenesis,\r\n        uint256 _minBid,\r\n        uint256 _minNextSlots,\r\n        uint256 _minNextbid,\r\n        address payable defaultCoAddress\r\n    ) public {\r\n        genesisBlock = getBlockNumber() + _delayGenesis;\r\n        maxTx = _maxTx;\r\n        burnAddress = _burnAddress;\r\n        blocksPerSlot = _blocksPerSlot;\r\n        delayGenesis = _delayGenesis;\r\n        minBid = _minBid;\r\n        minNextSlots = _minNextSlots;\r\n        minNextbid = _minNextbid;\r\n        coDefault = Coordinator(defaultCoAddress);\r\n    }\r\n\r\n    /**\r\n     * @dev Retrieve ether amount to be burned\r\n     * @param slot slot number\r\n     * @param co coordinator instance\r\n     * @param _value amount of ether sent\r\n     * @return  burn amount\r\n     */\r\n    function bid(\r\n        uint32 slot,\r\n        Coordinator memory co,\r\n        uint256 _value\r\n    ) internal returns (uint256) {\r\n        uint256 burnBid = 0;\r\n        uint256 value = _value;\r\n        if (slotBid[slot].initialized) {\r\n            uint256 previousBid = slotBid[slot].amount;\r\n            uint256 nextBid = previousBid.add(\r\n                (previousBid.mul(minNextbid)).div(100)\r\n            );\r\n            require(\r\n                value >= nextBid,\r\n                \"bid not enough to outbid current bidder\"\r\n            );\r\n            // refund previous bidder\r\n            address payable previousBidder = slotWinner[slot]\r\n                .coordinatorAddress;\r\n            previousBidder.transfer(previousBid);\r\n            // update burn amount\r\n            burnBid = value.sub(previousBid);\r\n        } else {\r\n            // value should be greater than or equal to minBid\r\n            require(value >= minBid, \"bid not enough than minimum bid\");\r\n            slotBid[slot].initialized = true;\r\n            burnBid = value;\r\n        }\r\n        // update slot winner\r\n        slotWinner[slot] = co;\r\n        // update slot price\r\n        slotBid[slot].amount = value;\r\n        // emit event\r\n        emit currentBestBid(slot, slotBid[slot].amount, co.coordinatorAddress);\r\n        return burnBid;\r\n    }\r\n\r\n    /**\r\n     * @dev bid for self\r\n     * @param _slot slot number\r\n     */\r\n    function bidBySelf(uint32 _slot) external payable returns (bool) {\r\n        require(\r\n            _slot >= currentSlot() + minNextSlots,\r\n            \"This auction is already closed\"\r\n        );\r\n        Coordinator memory co = Coordinator(msg.sender);\r\n        uint256 burnBid = bid(_slot, co, msg.value);\r\n        burnAddress.transfer(burnBid);\r\n        return true;\r\n    }\r\n\r\n    /**\r\n     * @dev bid for others using different address arguments\r\n     * @param _slot slot number\r\n     * @param _coordinatorAddress coordinator address of others\r\n     */\r\n    function bidForOthers(uint32 _slot, address payable _coordinatorAddress)\r\n        external\r\n        payable\r\n        returns (bool)\r\n    {\r\n        require(\r\n            _slot >= currentSlot() + minNextSlots,\r\n            \"This auction is already closed\"\r\n        );\r\n        Coordinator memory co = Coordinator(_coordinatorAddress);\r\n        uint256 burnBid = bid(_slot, co, msg.value);\r\n        burnAddress.transfer(burnBid);\r\n        return true;\r\n    }\r\n\r\n    /**\r\n     * @dev Retrieve slot winner\r\n     * @return submitBatchAddress,returnAddress,Coordinator url,bidprice\r\n     */\r\n    function getCurrentWinner() public view returns (address) {\r\n        uint32 querySlot = currentSlot();\r\n        address batchSubmitter = slotWinner[querySlot].coordinatorAddress;\r\n        if (batchSubmitter != address(0x00)) {\r\n            return (batchSubmitter);\r\n        } else {\r\n            return (coDefault.coordinatorAddress);\r\n        }\r\n    }\r\n\r\n    /**\r\n     * @dev Calculate slot from block number\r\n     * @param numBlock block number\r\n     * @return slot number\r\n     */\r\n    function block2slot(uint256 numBlock) public view returns (uint32) {\r\n        if (numBlock < genesisBlock) return 0;\r\n        return uint32((numBlock - genesisBlock) / (blocksPerSlot));\r\n    }\r\n\r\n    /**\r\n     * @dev Retrieve current slot\r\n     * @return slot number\r\n     */\r\n    function currentSlot() public view returns (uint32) {\r\n        return block2slot(getBlockNumber());\r\n    }\r\n\r\n    /**\r\n     * @dev Retrieve block number\r\n     * @return current block number\r\n     */\r\n    function getBlockNumber() public view returns (uint256) {\r\n        return block.number;\r\n    }\r\n\r\n    /**\r\n     * @dev check if given address winner of slot or not\r\n     * @param _slot slot number\r\n     * @param _winner winer address to be checked\r\n     * @return bool\r\n     */\r\n    function checkWinner(uint256 _slot, address _winner)\r\n        public\r\n        view\r\n        returns (bool)\r\n    {\r\n        if (\r\n            slotBid[_slot].initialized != true &&\r\n            coDefault.coordinatorAddress == _winner\r\n        ) return true;\r\n        address coordinator = slotWinner[_slot].coordinatorAddress;\r\n        if (coordinator == _winner) {\r\n            return true;\r\n        } else {\r\n            return false;\r\n        }\r\n    }\r\n}\r\n",
  "sourcePath": "C:\\Users\\lazypuppet\\ethereum\\snaketh4x0r\\BurnAuctionProject\\contracts\\BurnAuction.sol",
  "compiler": {
    "name": "solc",
    "version": "0.5.15+commit.6a57276f.Emscripten.clang"
  },
  "schemaVersion": "3.0.18",
  "updatedAt": "2020-09-26T16:17:35.645Z",
  "devdoc": {
    "methods": {
      "bidBySelf(uint32)": {
        "details": "bid for self",
        "params": {
          "_slot": "slot number"
        }
      },
      "bidForOthers(uint32,address)": {
        "details": "bid for others using different address arguments",
        "params": {
          "_coordinatorAddress": "coordinator address of others",
          "_slot": "slot number"
        }
      },
      "block2slot(uint256)": {
        "details": "Calculate slot from block number",
        "params": {
          "numBlock": "block number"
        },
        "return": "slot number"
      },
      "checkWinner(uint256,address)": {
        "details": "check if given address winner of slot or not",
        "params": {
          "_slot": "slot number",
          "_winner": "winer address to be checked"
        },
        "return": "bool"
      },
      "constructor": {
        "details": "BurnAuction Constructor Set first block where the first slot begin",
        "params": {
          "_blocksPerSlot": "number of blocks in slot",
          "_burnAddress": "burner address",
          "_delayGenesis": "delay genesisBlock by this",
          "_maxTx": "maximum transactions",
          "_minBid": "minimum bid for a auction slot",
          "_minNextSlots": "differance between currentslot and auction slot"
        }
      },
      "currentSlot()": {
        "details": "Retrieve current slot",
        "return": "slot number"
      },
      "getBlockNumber()": {
        "details": "Retrieve block number",
        "return": "current block number"
      },
      "getCurrentWinner()": {
        "details": "Retrieve slot winner",
        "return": "submitBatchAddress,returnAddress,Coordinator url,bidprice"
      }
    }
  },
  "userdoc": {
    "methods": {}
  }
}