{
  "contractName": "hubbletest",
  "abi": [
    {
      "inputs": [
        {
          "internalType": "address",
          "name": "_burnauction",
          "type": "address"
        }
      ],
      "payable": false,
      "stateMutability": "nonpayable",
      "type": "constructor"
    },
    {
      "constant": true,
      "inputs": [],
      "name": "burnAuction",
      "outputs": [
        {
          "internalType": "contract BurnAuction",
          "name": "",
          "type": "address"
        }
      ],
      "payable": false,
      "stateMutability": "view",
      "type": "function"
    },
    {
      "constant": false,
      "inputs": [],
      "name": "submitBatch",
      "outputs": [
        {
          "internalType": "bool",
          "name": "",
          "type": "bool"
        }
      ],
      "payable": true,
      "stateMutability": "payable",
      "type": "function"
    }
  ],
  "bytecode": "0x608060405234801561001057600080fd5b506040516104143803806104148339818101604052602081101561003357600080fd5b8101908080519060200190929190505050806000806101000a81548173ffffffffffffffffffffffffffffffffffffffff021916908373ffffffffffffffffffffffffffffffffffffffff16021790555050610380806100946000396000f3fe608060405260043610610046576000357c010000000000000000000000000000000000000000000000000000000090048063461153831461004b578063c9f0a02d1461006d575b600080fd5b6100536100c4565b604051808215151515815260200191505060405180910390f35b34801561007957600080fd5b50610082610326565b604051808273ffffffffffffffffffffffffffffffffffffffff1673ffffffffffffffffffffffffffffffffffffffff16815260200191505060405180910390f35b6000806000606060008060009054906101000a900473ffffffffffffffffffffffffffffffffffffffff1673ffffffffffffffffffffffffffffffffffffffff1663329bfc336040518163ffffffff167c010000000000000000000000000000000000000000000000000000000002815260040160006040518083038186803b15801561015057600080fd5b505afa158015610164573d6000803e3d6000fd5b505050506040513d6000823e3d601f19601f82011682018060405250608081101561018e57600080fd5b810190808051906020019092919080519060200190929190805160405193929190846401000000008211156101c257600080fd5b838201915060208201858111156101d857600080fd5b82518660018202830111640100000000821117156101f557600080fd5b8083526020830192505050908051906020019080838360005b8381101561022957808201518184015260208101905061020e565b50505050905090810190601f1680156102565780820380516001836020036101000a031916815260200191505b5060405260200180519060200190929190505050809450819550829750839650505050508273ffffffffffffffffffffffffffffffffffffffff163373ffffffffffffffffffffffffffffffffffffffff161461031b576040517f08c379a000000000000000000000000000000000000000000000000000000000815260040180806020018281038252601b8152602001807f436f6f7264696e61746f72206469646e277420776f6e20736c6f74000000000081525060200191505060405180910390fd5b600194505050505090565b6000809054906101000a900473ffffffffffffffffffffffffffffffffffffffff168156fea265627a7a72315820404f3576ac41631aaa235a3f64dc15dededbfe6f31e5d26861f89154d814333c64736f6c634300050f0032",
  "source": "pragma solidity ^0.5.15;\r\n\r\nimport {BurnAuction} from \"./BurnAuction.sol\";\r\n\r\n// contract just for testing and writing tests\r\n// rollup.sol\r\ncontract hubbletest {\r\n    //external contracts\r\n    BurnAuction public burnAuction;\r\n\r\n    // in rollup there is contract address\r\n    // after deployment of contracts register with registry\r\n    constructor(address _burnauction) public {\r\n        burnAuction = BurnAuction(_burnauction);\r\n    }\r\n\r\n    // verify sum of all txns fees and match with slot sum of all fess?\r\n    function submitBatch() external payable returns (bool) {\r\n        address returnAdd;\r\n        address submitter;\r\n        string memory url;\r\n        uint256 amt;\r\n\r\n        (submitter, returnAdd, url, amt) = burnAuction.getCurrentWinner();\r\n        require(msg.sender == submitter, \"Coordinator didn't won slot\");\r\n        return true;\r\n    }\r\n}\r\n",
  "sourcePath": "C:/Users/lazypuppet/ethereum/snaketh4x0r/BurnAuctionProject/contracts/hubbletest.sol",
  "compiler": {
    "name": "solc",
    "version": "0.5.15+commit.6a57276f.Emscripten.clang"
  },
  "schemaVersion": "3.0.18",
  "updatedAt": "2020-08-29T14:53:17.182Z",
  "devdoc": {
    "methods": {}
  },
  "userdoc": {
    "methods": {}
  }
}