{
  "contractName": "hubbletest",
  "abi": [
    {
      "inputs": [
        {
          "internalType": "address",
          "name": "_burnauction",
          "type": "address"
        }
      ],
      "payable": false,
      "stateMutability": "nonpayable",
      "type": "constructor"
    },
    {
      "constant": true,
      "inputs": [],
      "name": "burnAuction",
      "outputs": [
        {
          "internalType": "contract BurnAuction",
          "name": "",
          "type": "address"
        }
      ],
      "payable": false,
      "stateMutability": "view",
      "type": "function"
    },
    {
      "constant": false,
      "inputs": [],
      "name": "submitBatch",
      "outputs": [
        {
          "internalType": "bool",
          "name": "",
          "type": "bool"
        }
      ],
      "payable": true,
      "stateMutability": "payable",
      "type": "function"
    }
  ],
  "bytecode": "0x608060405234801561001057600080fd5b5060405161031e38038061031e8339818101604052602081101561003357600080fd5b8101908080519060200190929190505050806000806101000a81548173ffffffffffffffffffffffffffffffffffffffff021916908373ffffffffffffffffffffffffffffffffffffffff1602179055505061028a806100946000396000f3fe608060405260043610610046576000357c010000000000000000000000000000000000000000000000000000000090048063461153831461004b578063c9f0a02d1461006d575b600080fd5b6100536100c4565b604051808215151515815260200191505060405180910390f35b34801561007957600080fd5b50610082610230565b604051808273ffffffffffffffffffffffffffffffffffffffff1673ffffffffffffffffffffffffffffffffffffffff16815260200191505060405180910390f35b6000806000809054906101000a900473ffffffffffffffffffffffffffffffffffffffff1673ffffffffffffffffffffffffffffffffffffffff1663329bfc336040518163ffffffff167c010000000000000000000000000000000000000000000000000000000002815260040160206040518083038186803b15801561014a57600080fd5b505afa15801561015e573d6000803e3d6000fd5b505050506040513d602081101561017457600080fd5b810190808051906020019092919050505090508073ffffffffffffffffffffffffffffffffffffffff163373ffffffffffffffffffffffffffffffffffffffff1614610228576040517f08c379a000000000000000000000000000000000000000000000000000000000815260040180806020018281038252601b8152602001807f436f6f7264696e61746f72206469646e277420776f6e20736c6f74000000000081525060200191505060405180910390fd5b600191505090565b6000809054906101000a900473ffffffffffffffffffffffffffffffffffffffff168156fea265627a7a723158203f2eea1a2cbb995cb7c03db0db4ebfecb7ffc04d0ad2a727efbfc6ea87fd7e3064736f6c634300050f0032",
  "source": "pragma solidity ^0.5.15;\r\n\r\nimport {BurnAuction} from \"./BurnAuction.sol\";\r\n\r\n// contract just for testing and writing tests\r\n// rollup.sol\r\ncontract hubbletest {\r\n    //external contracts\r\n    BurnAuction public burnAuction;\r\n\r\n    // in rollup there is contract address\r\n    // after deployment of contracts register with registry\r\n    constructor(address _burnauction) public {\r\n        burnAuction = BurnAuction(_burnauction);\r\n    }\r\n\r\n    // verify sum of all txns fees and match with slot sum of all fess?\r\n    function submitBatch() external payable returns (bool) {\r\n        address submitter;\r\n\r\n        (submitter) = burnAuction.getCurrentWinner();\r\n        require(msg.sender == submitter, \"Coordinator didn't won slot\");\r\n        return true;\r\n    }\r\n}\r\n",
  "sourcePath": "/mnt/c/Users/lazypuppet/ethereum/snaketh4x0r/burnauctionproject/contracts/hubbletest.sol",
  "compiler": {
    "name": "solc",
    "version": "0.5.15+commit.6a57276f.Emscripten.clang"
  },
  "schemaVersion": "3.0.18",
  "updatedAt": "2020-09-08T08:42:25.459Z",
  "devdoc": {
    "methods": {}
  },
  "userdoc": {
    "methods": {}
  }
}