{
  "contractName": "hubbletest",
  "abi": [
    {
      "inputs": [
        {
          "internalType": "address",
          "name": "_burnauction",
          "type": "address"
        }
      ],
      "payable": false,
      "stateMutability": "nonpayable",
      "type": "constructor"
    },
    {
      "constant": true,
      "inputs": [],
      "name": "burnAuction",
      "outputs": [
        {
          "internalType": "contract BurnAuction",
          "name": "",
          "type": "address"
        }
      ],
      "payable": false,
      "stateMutability": "view",
      "type": "function"
    },
    {
      "constant": false,
      "inputs": [
        {
          "internalType": "uint32",
          "name": "_slot",
          "type": "uint32"
        }
      ],
      "name": "submitBatch",
      "outputs": [
        {
          "internalType": "bool",
          "name": "",
          "type": "bool"
        }
      ],
      "payable": true,
      "stateMutability": "payable",
      "type": "function"
    }
  ],
  "bytecode": "0x608060405234801561001057600080fd5b506040516104573803806104578339818101604052602081101561003357600080fd5b8101908080519060200190929190505050806000806101000a81548173ffffffffffffffffffffffffffffffffffffffff021916908373ffffffffffffffffffffffffffffffffffffffff160217905550506103c3806100946000396000f3fe608060405260043610610046576000357c010000000000000000000000000000000000000000000000000000000090048063c9f0a02d1461004b578063e9ca4edb146100a2575b600080fd5b34801561005757600080fd5b506100606100ee565b604051808273ffffffffffffffffffffffffffffffffffffffff1673ffffffffffffffffffffffffffffffffffffffff16815260200191505060405180910390f35b6100d4600480360360208110156100b857600080fd5b81019080803563ffffffff169060200190929190505050610113565b604051808215151515815260200191505060405180910390f35b6000809054906101000a900473ffffffffffffffffffffffffffffffffffffffff1681565b6000806000606060008060009054906101000a900473ffffffffffffffffffffffffffffffffffffffff1673ffffffffffffffffffffffffffffffffffffffff1663477398aa876040518263ffffffff167c0100000000000000000000000000000000000000000000000000000000028152600401808263ffffffff1663ffffffff16815260200191505060006040518083038186803b1580156101b657600080fd5b505afa1580156101ca573d6000803e3d6000fd5b505050506040513d6000823e3d601f19601f8201168201806040525060808110156101f457600080fd5b8101908080519060200190929190805190602001909291908051604051939291908464010000000082111561022857600080fd5b8382019150602082018581111561023e57600080fd5b825186600182028301116401000000008211171561025b57600080fd5b8083526020830192505050908051906020019080838360005b8381101561028f578082015181840152602081019050610274565b50505050905090810190601f1680156102bc5780820380516001836020036101000a031916815260200191505b5060405260200180519060200190929190505050809450819550829750839650505050508273ffffffffffffffffffffffffffffffffffffffff163373ffffffffffffffffffffffffffffffffffffffff1614610381576040517f08c379a000000000000000000000000000000000000000000000000000000000815260040180806020018281038252601b8152602001807f436f6f7264696e61746f72206469646e277420776f6e20736c6f74000000000081525060200191505060405180910390fd5b600194505050505091905056fea265627a7a72315820d66aa3b667b0e4654e71cb61847dc7fb9a5cb74b99f145096a6d7872c6b223c764736f6c634300050f0032",
  "source": "pragma solidity ^0.5.15;\r\n\r\nimport {BurnAuction} from \"./BurnAuction.sol\";\r\n\r\n// contract just for testing and writing tests\r\n// todo will have to talk before integration with vaibhav on adding BurnAuction to rollup.sol\r\n// after discussion fork hubble make pr request review\r\n// rollup.sol\r\ncontract hubbletest {\r\n    //external contracts\r\n    BurnAuction public burnAuction;\r\n    \r\n    // in rollup there is contract address \r\n    // after deployment of contracts register with registry\r\n    constructor(address _burnauction) public {\r\n    burnAuction = BurnAuction(_burnauction);\r\n    }\r\n\r\n    // verify sum of all txns fees and match with slot sum of all fess?\r\n    function submitBatch(uint32 _slot) external payable returns (bool) {\r\n        address returnAdd;\r\n        address submitter;\r\n        string memory url;\r\n        uint256 amt;\r\n\r\n        (submitter, returnAdd, url, amt) = burnAuction.getWinner(_slot);\r\n        require(msg.sender == submitter, \"Coordinator didn't won slot\");\r\n        return true;\r\n    }\r\n}\r\n",
  "sourcePath": "C:/Users/lazypuppet/ethereum/snaketh4x0r/BurnAuctionProject/contracts/hubbletest.sol",
  "compiler": {
    "name": "solc",
    "version": "0.5.15+commit.6a57276f.Emscripten.clang"
  },
  "schemaVersion": "3.0.18",
  "updatedAt": "2020-08-25T17:00:15.764Z",
  "devdoc": {
    "methods": {}
  },
  "userdoc": {
    "methods": {}
  }
}