{
  "contractName": "hubbletest",
  "abi": [
    {
      "inputs": [
        {
          "internalType": "address",
          "name": "_burnauction",
          "type": "address"
        }
      ],
      "payable": false,
      "stateMutability": "nonpayable",
      "type": "constructor"
    },
    {
      "constant": true,
      "inputs": [],
      "name": "burnAuction",
      "outputs": [
        {
          "internalType": "contract BurnAuction",
          "name": "",
          "type": "address"
        }
      ],
      "payable": false,
      "stateMutability": "view",
      "type": "function"
    },
    {
      "constant": false,
      "inputs": [
        {
          "internalType": "uint256",
          "name": "_slot",
          "type": "uint256"
        }
      ],
      "name": "submitBatch",
      "outputs": [
        {
          "internalType": "bool",
          "name": "",
          "type": "bool"
        }
      ],
      "payable": true,
      "stateMutability": "payable",
      "type": "function"
    }
  ],
  "bytecode": "0x608060405234801561001057600080fd5b506040516104453803806104458339818101604052602081101561003357600080fd5b8101908080519060200190929190505050806000806101000a81548173ffffffffffffffffffffffffffffffffffffffff021916908373ffffffffffffffffffffffffffffffffffffffff160217905550506103b1806100946000396000f3fe608060405260043610610046576000357c01000000000000000000000000000000000000000000000000000000009004806394bcd8c91461004b578063c9f0a02d14610091575b600080fd5b6100776004803603602081101561006157600080fd5b81019080803590602001909291905050506100e8565b604051808215151515815260200191505060405180910390f35b34801561009d57600080fd5b506100a6610357565b604051808273ffffffffffffffffffffffffffffffffffffffff1673ffffffffffffffffffffffffffffffffffffffff16815260200191505060405180910390f35b6000806000606060008060009054906101000a900473ffffffffffffffffffffffffffffffffffffffff1673ffffffffffffffffffffffffffffffffffffffff16634129b2c9876040518263ffffffff167c01000000000000000000000000000000000000000000000000000000000281526004018082815260200191505060006040518083038186803b15801561017f57600080fd5b505afa158015610193573d6000803e3d6000fd5b505050506040513d6000823e3d601f19601f8201168201806040525060808110156101bd57600080fd5b810190808051906020019092919080519060200190929190805160405193929190846401000000008211156101f157600080fd5b8382019150602082018581111561020757600080fd5b825186600182028301116401000000008211171561022457600080fd5b8083526020830192505050908051906020019080838360005b8381101561025857808201518184015260208101905061023d565b50505050905090810190601f1680156102855780820380516001836020036101000a031916815260200191505b5060405260200180519060200190929190505050809450819550829750839650505050508273ffffffffffffffffffffffffffffffffffffffff163373ffffffffffffffffffffffffffffffffffffffff161461034a576040517f08c379a000000000000000000000000000000000000000000000000000000000815260040180806020018281038252601b8152602001807f436f6f7264696e61746f72206469646e277420776f6e20736c6f74000000000081525060200191505060405180910390fd5b6001945050505050919050565b6000809054906101000a900473ffffffffffffffffffffffffffffffffffffffff168156fea265627a7a7231582024eac8973cc0122e0666e478f738cb7a6e760dc2732b3cf79b9ec430dd3c721b64736f6c634300050f0032",
  "source": "pragma solidity ^0.5.15;\r\n\r\nimport {BurnAuction} from \"./BurnAuction.sol\";\r\n\r\n// contract just for testing and writing tests\r\n// todo will have to talk before integration with vaibhav on adding BurnAuction to rollup.sol\r\n// after discussion fork hubble make pr request review\r\n// rollup.sol\r\ncontract hubbletest {\r\n    //external contracts\r\n    BurnAuction public burnAuction;\r\n    \r\n    // in rollup there is contract address \r\n    // after deployment of contracts register with registry\r\n    constructor(address _burnauction) public {\r\n    burnAuction = BurnAuction(_burnauction);\r\n    }\r\n\r\n    // verify sum of all txns fees and match with slot sum of all fess?\r\n    function submitBatch(uint256 _slot) external payable returns (bool) {\r\n        address returnAdd;\r\n        address submitter;\r\n        string memory url;\r\n        uint256 amt;\r\n\r\n        (submitter, returnAdd, url, amt) = burnAuction.getWinner(_slot);\r\n        require(msg.sender == submitter, \"Coordinator didn't won slot\");\r\n        return true;\r\n    }\r\n}\r\n",
  "sourcePath": "C:/Users/lazypuppet/ethereum/snaketh4x0r/BurnAuctionProject/contracts/hubbletest.sol",
  "compiler": {
    "name": "solc",
    "version": "0.5.15+commit.6a57276f.Emscripten.clang"
  },
  "schemaVersion": "3.0.18",
  "updatedAt": "2020-08-20T12:23:19.487Z",
  "networkType": "ethereum",
  "devdoc": {
    "methods": {}
  },
  "userdoc": {
    "methods": {}
  }
}